{
  "_format": "hh-sol-artifact-1",
  "contractName": "StudentResultSystem",
  "sourceName": "contracts/StudentResultSystem.sol",
  "abi": [
    {
      "inputs": [],
      "stateMutability": "nonpayable",
      "type": "constructor"
    },
    {
      "anonymous": false,
      "inputs": [
        {
          "indexed": false,
          "internalType": "uint256",
          "name": "resultId",
          "type": "uint256"
        },
        {
          "indexed": false,
          "internalType": "string",
          "name": "studentId",
          "type": "string"
        },
        {
          "indexed": false,
          "internalType": "string",
          "name": "examName",
          "type": "string"
        },
        {
          "indexed": false,
          "internalType": "string",
          "name": "resultHash",
          "type": "string"
        },
        {
          "indexed": false,
          "internalType": "address",
          "name": "uploadedBy",
          "type": "address"
        }
      ],
      "name": "ResultUploaded",
      "type": "event"
    },
    {
      "anonymous": false,
      "inputs": [
        {
          "indexed": true,
          "internalType": "bytes32",
          "name": "role",
          "type": "bytes32"
        },
        {
          "indexed": true,
          "internalType": "bytes32",
          "name": "previousAdminRole",
          "type": "bytes32"
        },
        {
          "indexed": true,
          "internalType": "bytes32",
          "name": "newAdminRole",
          "type": "bytes32"
        }
      ],
      "name": "RoleAdminChanged",
      "type": "event"
    },
    {
      "anonymous": false,
      "inputs": [
        {
          "indexed": true,
          "internalType": "bytes32",
          "name": "role",
          "type": "bytes32"
        },
        {
          "indexed": true,
          "internalType": "address",
          "name": "account",
          "type": "address"
        },
        {
          "indexed": true,
          "internalType": "address",
          "name": "sender",
          "type": "address"
        }
      ],
      "name": "RoleGranted",
      "type": "event"
    },
    {
      "anonymous": false,
      "inputs": [
        {
          "indexed": true,
          "internalType": "bytes32",
          "name": "role",
          "type": "bytes32"
        },
        {
          "indexed": true,
          "internalType": "address",
          "name": "account",
          "type": "address"
        },
        {
          "indexed": true,
          "internalType": "address",
          "name": "sender",
          "type": "address"
        }
      ],
      "name": "RoleRevoked",
      "type": "event"
    },
    {
      "anonymous": false,
      "inputs": [
        {
          "indexed": false,
          "internalType": "address",
          "name": "teacher",
          "type": "address"
        }
      ],
      "name": "TeacherAdded",
      "type": "event"
    },
    {
      "anonymous": false,
      "inputs": [
        {
          "indexed": false,
          "internalType": "address",
          "name": "teacher",
          "type": "address"
        }
      ],
      "name": "TeacherRemoved",
      "type": "event"
    },
    {
      "inputs": [],
      "name": "ADMIN_ROLE",
      "outputs": [
        {
          "internalType": "bytes32",
          "name": "",
          "type": "bytes32"
        }
      ],
      "stateMutability": "view",
      "type": "function"
    },
    {
      "inputs": [],
      "name": "DEFAULT_ADMIN_ROLE",
      "outputs": [
        {
          "internalType": "bytes32",
          "name": "",
          "type": "bytes32"
        }
      ],
      "stateMutability": "view",
      "type": "function"
    },
    {
      "inputs": [],
      "name": "TEACHER_ROLE",
      "outputs": [
        {
          "internalType": "bytes32",
          "name": "",
          "type": "bytes32"
        }
      ],
      "stateMutability": "view",
      "type": "function"
    },
    {
      "inputs": [
        {
          "internalType": "address",
          "name": "teacher",
          "type": "address"
        }
      ],
      "name": "addTeacher",
      "outputs": [],
      "stateMutability": "nonpayable",
      "type": "function"
    },
    {
      "inputs": [
        {
          "internalType": "uint256",
          "name": "resultId",
          "type": "uint256"
        }
      ],
      "name": "getResult",
      "outputs": [
        {
          "internalType": "uint256",
          "name": "id",
          "type": "uint256"
        },
        {
          "internalType": "string",
          "name": "studentId",
          "type": "string"
        },
        {
          "internalType": "string",
          "name": "examName",
          "type": "string"
        },
        {
          "internalType": "string",
          "name": "resultHash",
          "type": "string"
        },
        {
          "internalType": "uint256",
          "name": "timestamp",
          "type": "uint256"
        },
        {
          "internalType": "address",
          "name": "uploadedBy",
          "type": "address"
        }
      ],
      "stateMutability": "view",
      "type": "function"
    },
    {
      "inputs": [
        {
          "internalType": "bytes32",
          "name": "role",
          "type": "bytes32"
        }
      ],
      "name": "getRoleAdmin",
      "outputs": [
        {
          "internalType": "bytes32",
          "name": "",
          "type": "bytes32"
        }
      ],
      "stateMutability": "view",
      "type": "function"
    },
    {
      "inputs": [
        {
          "internalType": "string",
          "name": "studentId",
          "type": "string"
        }
      ],
      "name": "getStudentResultIds",
      "outputs": [
        {
          "internalType": "uint256[]",
          "name": "",
          "type": "uint256[]"
        }
      ],
      "stateMutability": "view",
      "type": "function"
    },
    {
      "inputs": [
        {
          "internalType": "bytes32",
          "name": "role",
          "type": "bytes32"
        },
        {
          "internalType": "address",
          "name": "account",
          "type": "address"
        }
      ],
      "name": "grantRole",
      "outputs": [],
      "stateMutability": "nonpayable",
      "type": "function"
    },
    {
      "inputs": [
        {
          "internalType": "bytes32",
          "name": "role",
          "type": "bytes32"
        },
        {
          "internalType": "address",
          "name": "account",
          "type": "address"
        }
      ],
      "name": "hasRole",
      "outputs": [
        {
          "internalType": "bool",
          "name": "",
          "type": "bool"
        }
      ],
      "stateMutability": "view",
      "type": "function"
    },
    {
      "inputs": [
        {
          "internalType": "address",
          "name": "teacher",
          "type": "address"
        }
      ],
      "name": "removeTeacher",
      "outputs": [],
      "stateMutability": "nonpayable",
      "type": "function"
    },
    {
      "inputs": [
        {
          "internalType": "bytes32",
          "name": "role",
          "type": "bytes32"
        },
        {
          "internalType": "address",
          "name": "account",
          "type": "address"
        }
      ],
      "name": "renounceRole",
      "outputs": [],
      "stateMutability": "nonpayable",
      "type": "function"
    },
    {
      "inputs": [
        {
          "internalType": "bytes32",
          "name": "role",
          "type": "bytes32"
        },
        {
          "internalType": "address",
          "name": "account",
          "type": "address"
        }
      ],
      "name": "revokeRole",
      "outputs": [],
      "stateMutability": "nonpayable",
      "type": "function"
    },
    {
      "inputs": [
        {
          "internalType": "bytes4",
          "name": "interfaceId",
          "type": "bytes4"
        }
      ],
      "name": "supportsInterface",
      "outputs": [
        {
          "internalType": "bool",
          "name": "",
          "type": "bool"
        }
      ],
      "stateMutability": "view",
      "type": "function"
    },
    {
      "inputs": [
        {
          "internalType": "string",
          "name": "studentId",
          "type": "string"
        },
        {
          "internalType": "string",
          "name": "examName",
          "type": "string"
        },
        {
          "internalType": "string",
          "name": "resultHash",
          "type": "string"
        }
      ],
      "name": "uploadResult",
      "outputs": [
        {
          "internalType": "uint256",
          "name": "",
          "type": "uint256"
        }
      ],
      "stateMutability": "nonpayable",
      "type": "function"
    },
    {
      "inputs": [
        {
          "internalType": "uint256",
          "name": "resultId",
          "type": "uint256"
        },
        {
          "internalType": "string",
          "name": "resultHash",
          "type": "string"
        }
      ],
      "name": "verifyResult",
      "outputs": [
        {
          "internalType": "bool",
          "name": "",
          "type": "bool"
        }
      ],
      "stateMutability": "view",
      "type": "function"
    }
  ],
  "bytecode": "0x60806040523480156200001157600080fd5b50620000276000801b336200005f60201b60201c565b620000597fa49807205ce4d355092ef5a8a18f56e8913cf4a201fbe287825b095693c21775336200005f60201b60201c565b620001c2565b6200007182826200015060201b60201c565b6200014c57600160008084815260200190815260200160002060000160008373ffffffffffffffffffffffffffffffffffffffff1673ffffffffffffffffffffffffffffffffffffffff16815260200190815260200160002060006101000a81548160ff021916908315150217905550620000f1620001ba60201b60201c565b73ffffffffffffffffffffffffffffffffffffffff168173ffffffffffffffffffffffffffffffffffffffff16837f2f8788117e7eff1d82e926ec794901d17c78024a50270940304540a733656f0d60405160405180910390a45b5050565b600080600084815260200190815260200160002060000160008373ffffffffffffffffffffffffffffffffffffffff1673ffffffffffffffffffffffffffffffffffffffff16815260200190815260200160002060009054906101000a900460ff16905092915050565b600033905090565b611f9480620001d26000396000f3fe608060405234801561001057600080fd5b50600436106100f55760003560e01c806375b238fc11610097578063a217fddf11610066578063a217fddf1461029b578063d027ca7d146102b9578063d3eec717146102e9578063d547741f14610319576100f5565b806375b238fc146101fa57806386e5c15a1461021857806391d1485414610236578063995e433914610266576100f5565b80632f2ff15d116100d35780632f2ff15d1461018a57806336568abe146101a65780633bc6e309146101c257806352ff6846146101de576100f5565b806301ffc9a7146100fa57806324464fd91461012a578063248a9ca31461015a575b600080fd5b610114600480360381019061010f9190611163565b610335565b60405161012191906111ab565b60405180910390f35b610144600480360381019061013f919061130c565b6103af565b60405161015191906113cc565b60405180910390f35b610174600480360381019061016f919061141d565b61057f565b6040516101819190611459565b60405180910390f35b6101a4600480360381019061019f91906114d2565b61059e565b005b6101c060048036038101906101bb91906114d2565b6105bf565b005b6101dc60048036038101906101d79190611512565b610642565b005b6101f860048036038101906101f39190611512565b6106d1565b005b610202610760565b60405161020f9190611459565b60405180910390f35b610220610784565b60405161022d9190611459565b60405180910390f35b610250600480360381019061024b91906114d2565b6107a8565b60405161025d91906111ab565b60405180910390f35b610280600480360381019061027b919061156b565b610812565b60405161029296959493929190611626565b60405180910390f35b6102a3610a92565b6040516102b09190611459565b60405180910390f35b6102d360048036038101906102ce919061169c565b610a99565b6040516102e091906111ab565b60405180910390f35b61030360048036038101906102fe91906116f8565b610b07565b60405161031091906117ff565b60405180910390f35b610333600480360381019061032e91906114d2565b610b7d565b005b60007f7965db0b000000000000000000000000000000000000000000000000000000007bffffffffffffffffffffffffffffffffffffffffffffffffffffffff1916827bffffffffffffffffffffffffffffffffffffffffffffffffffffffff191614806103a857506103a782610b9e565b5b9050919050565b60007fd16e204b8a42a15ab0ea6bb8ec1ecdfbe69f38074fc865323af19efe7d9573d96103db81610c08565b60006103e76001610c1c565b90506103f36001610c2a565b60006040518060c001604052808381526020018881526020018781526020018681526020014281526020013373ffffffffffffffffffffffffffffffffffffffff168152509050806002600084815260200190815260200160002060008201518160000155602082015181600101908161046d9190611a2d565b5060408201518160020190816104839190611a2d565b5060608201518160030190816104999190611a2d565b506080820151816004015560a08201518160050160006101000a81548173ffffffffffffffffffffffffffffffffffffffff021916908373ffffffffffffffffffffffffffffffffffffffff1602179055509050506003876040516104fe9190611b3b565b90815260200160405180910390208290806001815401808255809150506001900390600052602060002001600090919091909150557f6b8fde9fe806caba1564d9e80312a51021c253bf66570f5b69cac752bfa3ea0b828888883360405161056a959493929190611b52565b60405180910390a18193505050509392505050565b6000806000838152602001908152602001600020600101549050919050565b6105a78261057f565b6105b081610c08565b6105ba8383610c40565b505050565b6105c7610d20565b73ffffffffffffffffffffffffffffffffffffffff168173ffffffffffffffffffffffffffffffffffffffff1614610634576040517f08c379a000000000000000000000000000000000000000000000000000000000815260040161062b90611c2c565b60405180910390fd5b61063e8282610d28565b5050565b7fa49807205ce4d355092ef5a8a18f56e8913cf4a201fbe287825b095693c2177561066c81610c08565b6106967fd16e204b8a42a15ab0ea6bb8ec1ecdfbe69f38074fc865323af19efe7d9573d98361059e565b7f04e1c63d2b2fafca3496ea9c3f23b77835b9a91f5d74802ced76b7f929b3265e826040516106c59190611c4c565b60405180910390a15050565b7fa49807205ce4d355092ef5a8a18f56e8913cf4a201fbe287825b095693c217756106fb81610c08565b6107257fd16e204b8a42a15ab0ea6bb8ec1ecdfbe69f38074fc865323af19efe7d9573d983610b7d565b7f024a5dd50126818a1d488f90df37ad02592196a4ea744aff4799818139297734826040516107549190611c4c565b60405180910390a15050565b7fa49807205ce4d355092ef5a8a18f56e8913cf4a201fbe287825b095693c2177581565b7fd16e204b8a42a15ab0ea6bb8ec1ecdfbe69f38074fc865323af19efe7d9573d981565b600080600084815260200190815260200160002060000160008373ffffffffffffffffffffffffffffffffffffffff1673ffffffffffffffffffffffffffffffffffffffff16815260200190815260200160002060009054906101000a900460ff16905092915050565b600060608060606000806000600260008981526020019081526020016000206040518060c00160405290816000820154815260200160018201805461085690611850565b80601f016020809104026020016040519081016040528092919081815260200182805461088290611850565b80156108cf5780601f106108a4576101008083540402835291602001916108cf565b820191906000526020600020905b8154815290600101906020018083116108b257829003601f168201915b505050505081526020016002820180546108e890611850565b80601f016020809104026020016040519081016040528092919081815260200182805461091490611850565b80156109615780601f1061093657610100808354040283529160200191610961565b820191906000526020600020905b81548152906001019060200180831161094457829003601f168201915b5050505050815260200160038201805461097a90611850565b80601f01602080910402602001604051908101604052809291908181526020018280546109a690611850565b80156109f35780601f106109c8576101008083540402835291602001916109f3565b820191906000526020600020905b8154815290600101906020018083116109d657829003601f168201915b50505050508152602001600482015481526020016005820160009054906101000a900473ffffffffffffffffffffffffffffffffffffffff1673ffffffffffffffffffffffffffffffffffffffff1673ffffffffffffffffffffffffffffffffffffffff16815250509050806000015181602001518260400151836060015184608001518560a001519650965096509650965096505091939550919395565b6000801b81565b600081604051602001610aac9190611b3b565b6040516020818303038152906040528051906020012060026000858152602001908152602001600020600301604051602001610ae89190611cea565b6040516020818303038152906040528051906020012014905092915050565b6060600382604051610b199190611b3b565b9081526020016040518091039020805480602002602001604051908101604052809291908181526020018280548015610b7157602002820191906000526020600020905b815481526020019060010190808311610b5d575b50505050509050919050565b610b868261057f565b610b8f81610c08565b610b998383610d28565b505050565b60007f01ffc9a7000000000000000000000000000000000000000000000000000000007bffffffffffffffffffffffffffffffffffffffffffffffffffffffff1916827bffffffffffffffffffffffffffffffffffffffffffffffffffffffff1916149050919050565b610c1981610c14610d20565b610e09565b50565b600081600001549050919050565b6001816000016000828254019250508190555050565b610c4a82826107a8565b610d1c57600160008084815260200190815260200160002060000160008373ffffffffffffffffffffffffffffffffffffffff1673ffffffffffffffffffffffffffffffffffffffff16815260200190815260200160002060006101000a81548160ff021916908315150217905550610cc1610d20565b73ffffffffffffffffffffffffffffffffffffffff168173ffffffffffffffffffffffffffffffffffffffff16837f2f8788117e7eff1d82e926ec794901d17c78024a50270940304540a733656f0d60405160405180910390a45b5050565b600033905090565b610d3282826107a8565b15610e0557600080600084815260200190815260200160002060000160008373ffffffffffffffffffffffffffffffffffffffff1673ffffffffffffffffffffffffffffffffffffffff16815260200190815260200160002060006101000a81548160ff021916908315150217905550610daa610d20565b73ffffffffffffffffffffffffffffffffffffffff168173ffffffffffffffffffffffffffffffffffffffff16837ff6391f5c32d9c69d2a47ea670b442974b53935d1edc7fd64eb21e047a839171b60405160405180910390a45b5050565b610e1382826107a8565b610e8a57610e2081610e8e565b610e2e8360001c6020610ebb565b604051602001610e3f929190611d99565b6040516020818303038152906040526040517f08c379a0000000000000000000000000000000000000000000000000000000008152600401610e819190611dd3565b60405180910390fd5b5050565b6060610eb48273ffffffffffffffffffffffffffffffffffffffff16601460ff16610ebb565b9050919050565b606060006002836002610ece9190611e24565b610ed89190611e66565b67ffffffffffffffff811115610ef157610ef06111e1565b5b6040519080825280601f01601f191660200182016040528015610f235781602001600182028036833780820191505090505b5090507f300000000000000000000000000000000000000000000000000000000000000081600081518110610f5b57610f5a611e9a565b5b60200101907effffffffffffffffffffffffffffffffffffffffffffffffffffffffffffff1916908160001a9053507f780000000000000000000000000000000000000000000000000000000000000081600181518110610fbf57610fbe611e9a565b5b60200101907effffffffffffffffffffffffffffffffffffffffffffffffffffffffffffff1916908160001a90535060006001846002610fff9190611e24565b6110099190611e66565b90505b60018111156110a9577f3031323334353637383961626364656600000000000000000000000000000000600f86166010811061104b5761104a611e9a565b5b1a60f81b82828151811061106257611061611e9a565b5b60200101907effffffffffffffffffffffffffffffffffffffffffffffffffffffffffffff1916908160001a905350600485901c9450806110a290611ec9565b905061100c565b50600084146110ed576040517f08c379a00000000000000000000000000000000000000000000000000000000081526004016110e490611f3e565b60405180910390fd5b8091505092915050565b6000604051905090565b600080fd5b600080fd5b60007fffffffff0000000000000000000000000000000000000000000000000000000082169050919050565b6111408161110b565b811461114b57600080fd5b50565b60008135905061115d81611137565b92915050565b60006020828403121561117957611178611101565b5b60006111878482850161114e565b91505092915050565b60008115159050919050565b6111a581611190565b82525050565b60006020820190506111c0600083018461119c565b92915050565b600080fd5b600080fd5b6000601f19601f8301169050919050565b7f4e487b7100000000000000000000000000000000000000000000000000000000600052604160045260246000fd5b611219826111d0565b810181811067ffffffffffffffff82111715611238576112376111e1565b5b80604052505050565b600061124b6110f7565b90506112578282611210565b919050565b600067ffffffffffffffff821115611277576112766111e1565b5b611280826111d0565b9050602081019050919050565b82818337600083830152505050565b60006112af6112aa8461125c565b611241565b9050828152602081018484840111156112cb576112ca6111cb565b5b6112d684828561128d565b509392505050565b600082601f8301126112f3576112f26111c6565b5b813561130384826020860161129c565b91505092915050565b60008060006060848603121561132557611324611101565b5b600084013567ffffffffffffffff81111561134357611342611106565b5b61134f868287016112de565b935050602084013567ffffffffffffffff8111156113705761136f611106565b5b61137c868287016112de565b925050604084013567ffffffffffffffff81111561139d5761139c611106565b5b6113a9868287016112de565b9150509250925092565b6000819050919050565b6113c6816113b3565b82525050565b60006020820190506113e160008301846113bd565b92915050565b6000819050919050565b6113fa816113e7565b811461140557600080fd5b50565b600081359050611417816113f1565b92915050565b60006020828403121561143357611432611101565b5b600061144184828501611408565b91505092915050565b611453816113e7565b82525050565b600060208201905061146e600083018461144a565b92915050565b600073ffffffffffffffffffffffffffffffffffffffff82169050919050565b600061149f82611474565b9050919050565b6114af81611494565b81146114ba57600080fd5b50565b6000813590506114cc816114a6565b92915050565b600080604083850312156114e9576114e8611101565b5b60006114f785828601611408565b9250506020611508858286016114bd565b9150509250929050565b60006020828403121561152857611527611101565b5b6000611536848285016114bd565b91505092915050565b611548816113b3565b811461155357600080fd5b50565b6000813590506115658161153f565b92915050565b60006020828403121561158157611580611101565b5b600061158f84828501611556565b91505092915050565b600081519050919050565b600082825260208201905092915050565b60005b838110156115d25780820151818401526020810190506115b7565b60008484015250505050565b60006115e982611598565b6115f381856115a3565b93506116038185602086016115b4565b61160c816111d0565b840191505092915050565b61162081611494565b82525050565b600060c08201905061163b60008301896113bd565b818103602083015261164d81886115de565b9050818103604083015261166181876115de565b9050818103606083015261167581866115de565b905061168460808301856113bd565b61169160a0830184611617565b979650505050505050565b600080604083850312156116b3576116b2611101565b5b60006116c185828601611556565b925050602083013567ffffffffffffffff8111156116e2576116e1611106565b5b6116ee858286016112de565b9150509250929050565b60006020828403121561170e5761170d611101565b5b600082013567ffffffffffffffff81111561172c5761172b611106565b5b611738848285016112de565b91505092915050565b600081519050919050565b600082825260208201905092915050565b6000819050602082019050919050565b611776816113b3565b82525050565b6000611788838361176d565b60208301905092915050565b6000602082019050919050565b60006117ac82611741565b6117b6818561174c565b93506117c18361175d565b8060005b838110156117f25781516117d9888261177c565b97506117e483611794565b9250506001810190506117c5565b5085935050505092915050565b6000602082019050818103600083015261181981846117a1565b905092915050565b7f4e487b7100000000000000000000000000000000000000000000000000000000600052602260045260246000fd5b6000600282049050600182168061186857607f821691505b60208210810361187b5761187a611821565b5b50919050565b60008190508160005260206000209050919050565b60006020601f8301049050919050565b600082821b905092915050565b6000600883026118e37fffffffffffffffffffffffffffffffffffffffffffffffffffffffffffffffff826118a6565b6118ed86836118a6565b95508019841693508086168417925050509392505050565b6000819050919050565b600061192a611925611920846113b3565b611905565b6113b3565b9050919050565b6000819050919050565b6119448361190f565b61195861195082611931565b8484546118b3565b825550505050565b600090565b61196d611960565b61197881848461193b565b505050565b5b8181101561199c57611991600082611965565b60018101905061197e565b5050565b601f8211156119e1576119b281611881565b6119bb84611896565b810160208510156119ca578190505b6119de6119d685611896565b83018261197d565b50505b505050565b600082821c905092915050565b6000611a04600019846008026119e6565b1980831691505092915050565b6000611a1d83836119f3565b9150826002028217905092915050565b611a3682611598565b67ffffffffffffffff811115611a4f57611a4e6111e1565b5b611a598254611850565b611a648282856119a0565b600060209050601f831160018114611a975760008415611a85578287015190505b611a8f8582611a11565b865550611af7565b601f198416611aa586611881565b60005b82811015611acd57848901518255600182019150602085019450602081019050611aa8565b86831015611aea5784890151611ae6601f8916826119f3565b8355505b6001600288020188555050505b505050505050565b600081905092915050565b6000611b1582611598565b611b1f8185611aff565b9350611b2f8185602086016115b4565b80840191505092915050565b6000611b478284611b0a565b915081905092915050565b600060a082019050611b6760008301886113bd565b8181036020830152611b7981876115de565b90508181036040830152611b8d81866115de565b90508181036060830152611ba181856115de565b9050611bb06080830184611617565b9695505050505050565b7f416363657373436f6e74726f6c3a2063616e206f6e6c792072656e6f756e636560008201527f20726f6c657320666f722073656c660000000000000000000000000000000000602082015250565b6000611c16602f836115a3565b9150611c2182611bba565b604082019050919050565b60006020820190508181036000830152611c4581611c09565b9050919050565b6000602082019050611c616000830184611617565b92915050565b60008154611c7481611850565b611c7e8186611aff565b94506001821660008114611c995760018114611cae57611ce1565b60ff1983168652811515820286019350611ce1565b611cb785611881565b60005b83811015611cd957815481890152600182019150602081019050611cba565b838801955050505b50505092915050565b6000611cf68284611c67565b915081905092915050565b7f416363657373436f6e74726f6c3a206163636f756e7420000000000000000000600082015250565b6000611d37601783611aff565b9150611d4282611d01565b601782019050919050565b7f206973206d697373696e6720726f6c6520000000000000000000000000000000600082015250565b6000611d83601183611aff565b9150611d8e82611d4d565b601182019050919050565b6000611da482611d2a565b9150611db08285611b0a565b9150611dbb82611d76565b9150611dc78284611b0a565b91508190509392505050565b60006020820190508181036000830152611ded81846115de565b905092915050565b7f4e487b7100000000000000000000000000000000000000000000000000000000600052601160045260246000fd5b6000611e2f826113b3565b9150611e3a836113b3565b9250828202611e48816113b3565b91508282048414831517611e5f57611e5e611df5565b5b5092915050565b6000611e71826113b3565b9150611e7c836113b3565b9250828201905080821115611e9457611e93611df5565b5b92915050565b7f4e487b7100000000000000000000000000000000000000000000000000000000600052603260045260246000fd5b6000611ed4826113b3565b915060008203611ee757611ee6611df5565b5b600182039050919050565b7f537472696e67733a20686578206c656e67746820696e73756666696369656e74600082015250565b6000611f286020836115a3565b9150611f3382611ef2565b602082019050919050565b60006020820190508181036000830152611f5781611f1b565b905091905056fea2646970667358221220a51168363ac7e0d900794719344c206a224f7fe09fb214f2e1fca9b89be46bb864736f6c63430008140033",
  "linkReferences": {},
  "deployedLinkReferences": {}
}