{"contracts/StudentResultSystem.sol":{"StudentResultSystem":{"abi":[{"inputs":[],"stateMutability":"nonpayable","type":"constructor"},{"anonymous":false,"inputs":[{"indexed":false,"internalType":"uint256","name":"resultId","type":"uint256"},{"indexed":false,"internalType":"string","name":"studentId","type":"string"},{"indexed":false,"internalType":"string","name":"examName","type":"string"},{"indexed":false,"internalType":"string","name":"resultHash","type":"string"},{"indexed":false,"internalType":"address","name":"uploadedBy","type":"address"}],"name":"ResultUploaded","type":"event"},{"anonymous":false,"inputs":[{"indexed":true,"internalType":"bytes32","name":"role","type":"bytes32"},{"indexed":true,"internalType":"bytes32","name":"previousAdminRole","type":"bytes32"},{"indexed":true,"internalType":"bytes32","name":"newAdminRole","type":"bytes32"}],"name":"RoleAdminChanged","type":"event"},{"anonymous":false,"inputs":[{"indexed":true,"internalType":"bytes32","name":"role","type":"bytes32"},{"indexed":true,"internalType":"address","name":"account","type":"address"},{"indexed":true,"internalType":"address","name":"sender","type":"address"}],"name":"RoleGranted","type":"event"},{"anonymous":false,"inputs":[{"indexed":true,"internalType":"bytes32","name":"role","type":"bytes32"},{"indexed":true,"internalType":"address","name":"account","type":"address"},{"indexed":true,"internalType":"address","name":"sender","type":"address"}],"name":"RoleRevoked","type":"event"},{"anonymous":false,"inputs":[{"indexed":false,"internalType":"address","name":"teacher","type":"address"}],"name":"TeacherAdded","type":"event"},{"anonymous":false,"inputs":[{"indexed":false,"internalType":"address","name":"teacher","type":"address"}],"name":"TeacherRemoved","type":"event"},{"inputs":[],"name":"ADMIN_ROLE","outputs":[{"internalType":"bytes32","name":"","type":"bytes32"}],"stateMutability":"view","type":"function"},{"inputs":[],"name":"DEFAULT_ADMIN_ROLE","outputs":[{"internalType":"bytes32","name":"","type":"bytes32"}],"stateMutability":"view","type":"function"},{"inputs":[],"name":"TEACHER_ROLE","outputs":[{"internalType":"bytes32","name":"","type":"bytes32"}],"stateMutability":"view","type":"function"},{"inputs":[{"internalType":"address","name":"teacher","type":"address"}],"name":"addTeacher","outputs":[],"stateMutability":"nonpayable","type":"function"},{"inputs":[{"internalType":"uint256","name":"resultId","type":"uint256"}],"name":"getResult","outputs":[{"internalType":"uint256","name":"id","type":"uint256"},{"internalType":"string","name":"studentId","type":"string"},{"internalType":"string","name":"examName","type":"string"},{"internalType":"string","name":"resultHash","type":"string"},{"internalType":"uint256","name":"timestamp","type":"uint256"},{"internalType":"address","name":"uploadedBy","type":"address"}],"stateMutability":"view","type":"function"},{"inputs":[{"internalType":"bytes32","name":"role","type":"bytes32"}],"name":"getRoleAdmin","outputs":[{"internalType":"bytes32","name":"","type":"bytes32"}],"stateMutability":"view","type":"function"},{"inputs":[{"internalType":"string","name":"studentId","type":"string"}],"name":"getStudentResultIds","outputs":[{"internalType":"uint256[]","name":"","type":"uint256[]"}],"stateMutability":"view","type":"function"},{"inputs":[{"internalType":"bytes32","name":"role","type":"bytes32"},{"internalType":"address","name":"account","type":"address"}],"name":"grantRole","outputs":[],"stateMutability":"nonpayable","type":"function"},{"inputs":[{"internalType":"bytes32","name":"role","type":"bytes32"},{"internalType":"address","name":"account","type":"address"}],"name":"hasRole","outputs":[{"internalType":"bool","name":"","type":"bool"}],"stateMutability":"view","type":"function"},{"inputs":[{"internalType":"address","name":"teacher","type":"address"}],"name":"removeTeacher","outputs":[],"stateMutability":"nonpayable","type":"function"},{"inputs":[{"internalType":"bytes32","name":"role","type":"bytes32"},{"internalType":"address","name":"account","type":"address"}],"name":"renounceRole","outputs":[],"stateMutability":"nonpayable","type":"function"},{"inputs":[{"internalType":"bytes32","name":"role","type":"bytes32"},{"internalType":"address","name":"account","type":"address"}],"name":"revokeRole","outputs":[],"stateMutability":"nonpayable","type":"function"},{"inputs":[{"internalType":"bytes4","name":"interfaceId","type":"bytes4"}],"name":"supportsInterface","outputs":[{"internalType":"bool","name":"","type":"bool"}],"stateMutability":"view","type":"function"},{"inputs":[{"internalType":"string","name":"studentId","type":"string"},{"internalType":"string","name":"examName","type":"string"},{"internalType":"string","name":"resultHash","type":"string"}],"name":"uploadResult","outputs":[{"internalType":"uint256","name":"","type":"uint256"}],"stateMutability":"nonpayable","type":"function"},{"inputs":[{"internalType":"uint256","name":"resultId","type":"uint256"},{"internalType":"string","name":"resultHash","type":"string"}],"name":"verifyResult","outputs":[{"internalType":"bool","name":"","type":"bool"}],"stateMutability":"view","type":"function"}],"evm":{"bytecode":{"linkReferences":{},"object":"60806040523480156200001157600080fd5b50620000276000801b336200005f60201b60201c565b620000597fa49807205ce4d355092ef5a8a18f56e8913cf4a201fbe287825b095693c21775336200005f60201b60201c565b620001c2565b6200007182826200015060201b60201c565b6200014c57600160008084815260200190815260200160002060000160008373ffffffffffffffffffffffffffffffffffffffff1673ffffffffffffffffffffffffffffffffffffffff16815260200190815260200160002060006101000a81548160ff021916908315150217905550620000f1620001ba60201b60201c565b73ffffffffffffffffffffffffffffffffffffffff168173ffffffffffffffffffffffffffffffffffffffff16837f2f8788117e7eff1d82e926ec794901d17c78024a50270940304540a733656f0d60405160405180910390a45b5050565b600080600084815260200190815260200160002060000160008373ffffffffffffffffffffffffffffffffffffffff1673ffffffffffffffffffffffffffffffffffffffff16815260200190815260200160002060009054906101000a900460ff16905092915050565b600033905090565b611f9480620001d26000396000f3fe608060405234801561001057600080fd5b50600436106100f55760003560e01c806375b238fc11610097578063a217fddf11610066578063a217fddf1461029b578063d027ca7d146102b9578063d3eec717146102e9578063d547741f14610319576100f5565b806375b238fc146101fa57806386e5c15a1461021857806391d1485414610236578063995e433914610266576100f5565b80632f2ff15d116100d35780632f2ff15d1461018a57806336568abe146101a65780633bc6e309146101c257806352ff6846146101de576100f5565b806301ffc9a7146100fa57806324464fd91461012a578063248a9ca31461015a575b600080fd5b610114600480360381019061010f9190611163565b610335565b60405161012191906111ab565b60405180910390f35b610144600480360381019061013f919061130c565b6103af565b60405161015191906113cc565b60405180910390f35b610174600480360381019061016f919061141d565b61057f565b6040516101819190611459565b60405180910390f35b6101a4600480360381019061019f91906114d2565b61059e565b005b6101c060048036038101906101bb91906114d2565b6105bf565b005b6101dc60048036038101906101d79190611512565b610642565b005b6101f860048036038101906101f39190611512565b6106d1565b005b610202610760565b60405161020f9190611459565b60405180910390f35b610220610784565b60405161022d9190611459565b60405180910390f35b610250600480360381019061024b91906114d2565b6107a8565b60405161025d91906111ab565b60405180910390f35b610280600480360381019061027b919061156b565b610812565b60405161029296959493929190611626565b60405180910390f35b6102a3610a92565b6040516102b09190611459565b60405180910390f35b6102d360048036038101906102ce919061169c565b610a99565b6040516102e091906111ab565b60405180910390f35b61030360048036038101906102fe91906116f8565b610b07565b60405161031091906117ff565b60405180910390f35b610333600480360381019061032e91906114d2565b610b7d565b005b60007f7965db0b000000000000000000000000000000000000000000000000000000007bffffffffffffffffffffffffffffffffffffffffffffffffffffffff1916827bffffffffffffffffffffffffffffffffffffffffffffffffffffffff191614806103a857506103a782610b9e565b5b9050919050565b60007fd16e204b8a42a15ab0ea6bb8ec1ecdfbe69f38074fc865323af19efe7d9573d96103db81610c08565b60006103e76001610c1c565b90506103f36001610c2a565b60006040518060c001604052808381526020018881526020018781526020018681526020014281526020013373ffffffffffffffffffffffffffffffffffffffff168152509050806002600084815260200190815260200160002060008201518160000155602082015181600101908161046d9190611a2d565b5060408201518160020190816104839190611a2d565b5060608201518160030190816104999190611a2d565b506080820151816004015560a08201518160050160006101000a81548173ffffffffffffffffffffffffffffffffffffffff021916908373ffffffffffffffffffffffffffffffffffffffff1602179055509050506003876040516104fe9190611b3b565b90815260200160405180910390208290806001815401808255809150506001900390600052602060002001600090919091909150557f6b8fde9fe806caba1564d9e80312a51021c253bf66570f5b69cac752bfa3ea0b828888883360405161056a959493929190611b52565b60405180910390a18193505050509392505050565b6000806000838152602001908152602001600020600101549050919050565b6105a78261057f565b6105b081610c08565b6105ba8383610c40565b505050565b6105c7610d20565b73ffffffffffffffffffffffffffffffffffffffff168173ffffffffffffffffffffffffffffffffffffffff1614610634576040517f08c379a000000000000000000000000000000000000000000000000000000000815260040161062b90611c2c565b60405180910390fd5b61063e8282610d28565b5050565b7fa49807205ce4d355092ef5a8a18f56e8913cf4a201fbe287825b095693c2177561066c81610c08565b6106967fd16e204b8a42a15ab0ea6bb8ec1ecdfbe69f38074fc865323af19efe7d9573d98361059e565b7f04e1c63d2b2fafca3496ea9c3f23b77835b9a91f5d74802ced76b7f929b3265e826040516106c59190611c4c565b60405180910390a15050565b7fa49807205ce4d355092ef5a8a18f56e8913cf4a201fbe287825b095693c217756106fb81610c08565b6107257fd16e204b8a42a15ab0ea6bb8ec1ecdfbe69f38074fc865323af19efe7d9573d983610b7d565b7f024a5dd50126818a1d488f90df37ad02592196a4ea744aff4799818139297734826040516107549190611c4c565b60405180910390a15050565b7fa49807205ce4d355092ef5a8a18f56e8913cf4a201fbe287825b095693c2177581565b7fd16e204b8a42a15ab0ea6bb8ec1ecdfbe69f38074fc865323af19efe7d9573d981565b600080600084815260200190815260200160002060000160008373ffffffffffffffffffffffffffffffffffffffff1673ffffffffffffffffffffffffffffffffffffffff16815260200190815260200160002060009054906101000a900460ff16905092915050565b600060608060606000806000600260008981526020019081526020016000206040518060c00160405290816000820154815260200160018201805461085690611850565b80601f016020809104026020016040519081016040528092919081815260200182805461088290611850565b80156108cf5780601f106108a4576101008083540402835291602001916108cf565b820191906000526020600020905b8154815290600101906020018083116108b257829003601f168201915b505050505081526020016002820180546108e890611850565b80601f016020809104026020016040519081016040528092919081815260200182805461091490611850565b80156109615780601f1061093657610100808354040283529160200191610961565b820191906000526020600020905b81548152906001019060200180831161094457829003601f168201915b5050505050815260200160038201805461097a90611850565b80601f01602080910402602001604051908101604052809291908181526020018280546109a690611850565b80156109f35780601f106109c8576101008083540402835291602001916109f3565b820191906000526020600020905b8154815290600101906020018083116109d657829003601f168201915b50505050508152602001600482015481526020016005820160009054906101000a900473ffffffffffffffffffffffffffffffffffffffff1673ffffffffffffffffffffffffffffffffffffffff1673ffffffffffffffffffffffffffffffffffffffff16815250509050806000015181602001518260400151836060015184608001518560a001519650965096509650965096505091939550919395565b6000801b81565b600081604051602001610aac9190611b3b565b6040516020818303038152906040528051906020012060026000858152602001908152602001600020600301604051602001610ae89190611cea565b6040516020818303038152906040528051906020012014905092915050565b6060600382604051610b199190611b3b565b9081526020016040518091039020805480602002602001604051908101604052809291908181526020018280548015610b7157602002820191906000526020600020905b815481526020019060010190808311610b5d575b50505050509050919050565b610b868261057f565b610b8f81610c08565b610b998383610d28565b505050565b60007f01ffc9a7000000000000000000000000000000000000000000000000000000007bffffffffffffffffffffffffffffffffffffffffffffffffffffffff1916827bffffffffffffffffffffffffffffffffffffffffffffffffffffffff1916149050919050565b610c1981610c14610d20565b610e09565b50565b600081600001549050919050565b6001816000016000828254019250508190555050565b610c4a82826107a8565b610d1c57600160008084815260200190815260200160002060000160008373ffffffffffffffffffffffffffffffffffffffff1673ffffffffffffffffffffffffffffffffffffffff16815260200190815260200160002060006101000a81548160ff021916908315150217905550610cc1610d20565b73ffffffffffffffffffffffffffffffffffffffff168173ffffffffffffffffffffffffffffffffffffffff16837f2f8788117e7eff1d82e926ec794901d17c78024a50270940304540a733656f0d60405160405180910390a45b5050565b600033905090565b610d3282826107a8565b15610e0557600080600084815260200190815260200160002060000160008373ffffffffffffffffffffffffffffffffffffffff1673ffffffffffffffffffffffffffffffffffffffff16815260200190815260200160002060006101000a81548160ff021916908315150217905550610daa610d20565b73ffffffffffffffffffffffffffffffffffffffff168173ffffffffffffffffffffffffffffffffffffffff16837ff6391f5c32d9c69d2a47ea670b442974b53935d1edc7fd64eb21e047a839171b60405160405180910390a45b5050565b610e1382826107a8565b610e8a57610e2081610e8e565b610e2e8360001c6020610ebb565b604051602001610e3f929190611d99565b6040516020818303038152906040526040517f08c379a0000000000000000000000000000000000000000000000000000000008152600401610e819190611dd3565b60405180910390fd5b5050565b6060610eb48273ffffffffffffffffffffffffffffffffffffffff16601460ff16610ebb565b9050919050565b606060006002836002610ece9190611e24565b610ed89190611e66565b67ffffffffffffffff811115610ef157610ef06111e1565b5b6040519080825280601f01601f191660200182016040528015610f235781602001600182028036833780820191505090505b5090507f300000000000000000000000000000000000000000000000000000000000000081600081518110610f5b57610f5a611e9a565b5b60200101907effffffffffffffffffffffffffffffffffffffffffffffffffffffffffffff1916908160001a9053507f780000000000000000000000000000000000000000000000000000000000000081600181518110610fbf57610fbe611e9a565b5b60200101907effffffffffffffffffffffffffffffffffffffffffffffffffffffffffffff1916908160001a90535060006001846002610fff9190611e24565b6110099190611e66565b90505b60018111156110a9577f3031323334353637383961626364656600000000000000000000000000000000600f86166010811061104b5761104a611e9a565b5b1a60f81b82828151811061106257611061611e9a565b5b60200101907effffffffffffffffffffffffffffffffffffffffffffffffffffffffffffff1916908160001a905350600485901c9450806110a290611ec9565b905061100c565b50600084146110ed576040517f08c379a00000000000000000000000000000000000000000000000000000000081526004016110e490611f3e565b60405180910390fd5b8091505092915050565b6000604051905090565b600080fd5b600080fd5b60007fffffffff0000000000000000000000000000000000000000000000000000000082169050919050565b6111408161110b565b811461114b57600080fd5b50565b60008135905061115d81611137565b92915050565b60006020828403121561117957611178611101565b5b60006111878482850161114e565b91505092915050565b60008115159050919050565b6111a581611190565b82525050565b60006020820190506111c0600083018461119c565b92915050565b600080fd5b600080fd5b6000601f19601f8301169050919050565b7f4e487b7100000000000000000000000000000000000000000000000000000000600052604160045260246000fd5b611219826111d0565b810181811067ffffffffffffffff82111715611238576112376111e1565b5b80604052505050565b600061124b6110f7565b90506112578282611210565b919050565b600067ffffffffffffffff821115611277576112766111e1565b5b611280826111d0565b9050602081019050919050565b82818337600083830152505050565b60006112af6112aa8461125c565b611241565b9050828152602081018484840111156112cb576112ca6111cb565b5b6112d684828561128d565b509392505050565b600082601f8301126112f3576112f26111c6565b5b813561130384826020860161129c565b91505092915050565b60008060006060848603121561132557611324611101565b5b600084013567ffffffffffffffff81111561134357611342611106565b5b61134f868287016112de565b935050602084013567ffffffffffffffff8111156113705761136f611106565b5b61137c868287016112de565b925050604084013567ffffffffffffffff81111561139d5761139c611106565b5b6113a9868287016112de565b9150509250925092565b6000819050919050565b6113c6816113b3565b82525050565b60006020820190506113e160008301846113bd565b92915050565b6000819050919050565b6113fa816113e7565b811461140557600080fd5b50565b600081359050611417816113f1565b92915050565b60006020828403121561143357611432611101565b5b600061144184828501611408565b91505092915050565b611453816113e7565b82525050565b600060208201905061146e600083018461144a565b92915050565b600073ffffffffffffffffffffffffffffffffffffffff82169050919050565b600061149f82611474565b9050919050565b6114af81611494565b81146114ba57600080fd5b50565b6000813590506114cc816114a6565b92915050565b600080604083850312156114e9576114e8611101565b5b60006114f785828601611408565b9250506020611508858286016114bd565b9150509250929050565b60006020828403121561152857611527611101565b5b6000611536848285016114bd565b91505092915050565b611548816113b3565b811461155357600080fd5b50565b6000813590506115658161153f565b92915050565b60006020828403121561158157611580611101565b5b600061158f84828501611556565b91505092915050565b600081519050919050565b600082825260208201905092915050565b60005b838110156115d25780820151818401526020810190506115b7565b60008484015250505050565b60006115e982611598565b6115f381856115a3565b93506116038185602086016115b4565b61160c816111d0565b840191505092915050565b61162081611494565b82525050565b600060c08201905061163b60008301896113bd565b818103602083015261164d81886115de565b9050818103604083015261166181876115de565b9050818103606083015261167581866115de565b905061168460808301856113bd565b61169160a0830184611617565b979650505050505050565b600080604083850312156116b3576116b2611101565b5b60006116c185828601611556565b925050602083013567ffffffffffffffff8111156116e2576116e1611106565b5b6116ee858286016112de565b9150509250929050565b60006020828403121561170e5761170d611101565b5b600082013567ffffffffffffffff81111561172c5761172b611106565b5b611738848285016112de565b91505092915050565b600081519050919050565b600082825260208201905092915050565b6000819050602082019050919050565b611776816113b3565b82525050565b6000611788838361176d565b60208301905092915050565b6000602082019050919050565b60006117ac82611741565b6117b6818561174c565b93506117c18361175d565b8060005b838110156117f25781516117d9888261177c565b97506117e483611794565b9250506001810190506117c5565b5085935050505092915050565b6000602082019050818103600083015261181981846117a1565b905092915050565b7f4e487b7100000000000000000000000000000000000000000000000000000000600052602260045260246000fd5b6000600282049050600182168061186857607f821691505b60208210810361187b5761187a611821565b5b50919050565b60008190508160005260206000209050919050565b60006020601f8301049050919050565b600082821b905092915050565b6000600883026118e37fffffffffffffffffffffffffffffffffffffffffffffffffffffffffffffffff826118a6565b6118ed86836118a6565b95508019841693508086168417925050509392505050565b6000819050919050565b600061192a611925611920846113b3565b611905565b6113b3565b9050919050565b6000819050919050565b6119448361190f565b61195861195082611931565b8484546118b3565b825550505050565b600090565b61196d611960565b61197881848461193b565b505050565b5b8181101561199c57611991600082611965565b60018101905061197e565b5050565b601f8211156119e1576119b281611881565b6119bb84611896565b810160208510156119ca578190505b6119de6119d685611896565b83018261197d565b50505b505050565b600082821c905092915050565b6000611a04600019846008026119e6565b1980831691505092915050565b6000611a1d83836119f3565b9150826002028217905092915050565b611a3682611598565b67ffffffffffffffff811115611a4f57611a4e6111e1565b5b611a598254611850565b611a648282856119a0565b600060209050601f831160018114611a975760008415611a85578287015190505b611a8f8582611a11565b865550611af7565b601f198416611aa586611881565b60005b82811015611acd57848901518255600182019150602085019450602081019050611aa8565b86831015611aea5784890151611ae6601f8916826119f3565b8355505b6001600288020188555050505b505050505050565b600081905092915050565b6000611b1582611598565b611b1f8185611aff565b9350611b2f8185602086016115b4565b80840191505092915050565b6000611b478284611b0a565b915081905092915050565b600060a082019050611b6760008301886113bd565b8181036020830152611b7981876115de565b90508181036040830152611b8d81866115de565b90508181036060830152611ba181856115de565b9050611bb06080830184611617565b9695505050505050565b7f416363657373436f6e74726f6c3a2063616e206f6e6c792072656e6f756e636560008201527f20726f6c657320666f722073656c660000000000000000000000000000000000602082015250565b6000611c16602f836115a3565b9150611c2182611bba565b604082019050919050565b60006020820190508181036000830152611c4581611c09565b9050919050565b6000602082019050611c616000830184611617565b92915050565b60008154611c7481611850565b611c7e8186611aff565b94506001821660008114611c995760018114611cae57611ce1565b60ff1983168652811515820286019350611ce1565b611cb785611881565b60005b83811015611cd957815481890152600182019150602081019050611cba565b838801955050505b50505092915050565b6000611cf68284611c67565b915081905092915050565b7f416363657373436f6e74726f6c3a206163636f756e7420000000000000000000600082015250565b6000611d37601783611aff565b9150611d4282611d01565b601782019050919050565b7f206973206d697373696e6720726f6c6520000000000000000000000000000000600082015250565b6000611d83601183611aff565b9150611d8e82611d4d565b601182019050919050565b6000611da482611d2a565b9150611db08285611b0a565b9150611dbb82611d76565b9150611dc78284611b0a565b91508190509392505050565b60006020820190508181036000830152611ded81846115de565b905092915050565b7f4e487b7100000000000000000000000000000000000000000000000000000000600052601160045260246000fd5b6000611e2f826113b3565b9150611e3a836113b3565b9250828202611e48816113b3565b91508282048414831517611e5f57611e5e611df5565b5b5092915050565b6000611e71826113b3565b9150611e7c836113b3565b9250828201905080821115611e9457611e93611df5565b5b92915050565b7f4e487b7100000000000000000000000000000000000000000000000000000000600052603260045260246000fd5b6000611ed4826113b3565b915060008203611ee757611ee6611df5565b5b600182039050919050565b7f537472696e67733a20686578206c656e67746820696e73756666696369656e74600082015250565b6000611f286020836115a3565b9150611f3382611ef2565b602082019050919050565b60006020820190508181036000830152611f5781611f1b565b905091905056fea2646970667358221220a51168363ac7e0d900794719344c206a224f7fe09fb214f2e1fca9b89be46bb864736f6c63430008140033","opcodes":"PUSH1 0x80 PUSH1 0x40 MSTORE CALLVALUE DUP1 ISZERO PUSH3 0x11 JUMPI PUSH1 0x0 DUP1 REVERT JUMPDEST POP PUSH3 0x27 PUSH1 0x0 DUP1 SHL CALLER PUSH3 0x5F PUSH1 0x20 SHL PUSH1 0x20 SHR JUMP JUMPDEST PUSH3 0x59 PUSH32 0xA49807205CE4D355092EF5A8A18F56E8913CF4A201FBE287825B095693C21775 CALLER PUSH3 0x5F PUSH1 0x20 SHL PUSH1 0x20 SHR JUMP JUMPDEST PUSH3 0x1C2 JUMP JUMPDEST PUSH3 0x71 DUP3 DUP3 PUSH3 0x150 PUSH1 0x20 SHL PUSH1 0x20 SHR JUMP JUMPDEST PUSH3 0x14C JUMPI PUSH1 0x1 PUSH1 0x0 DUP1 DUP5 DUP2 MSTORE PUSH1 0x20 ADD SWAP1 DUP2 MSTORE PUSH1 0x20 ADD PUSH1 0x0 KECCAK256 PUSH1 0x0 ADD PUSH1 0x0 DUP4 PUSH20 0xFFFFFFFFFFFFFFFFFFFFFFFFFFFFFFFFFFFFFFFF AND PUSH20 0xFFFFFFFFFFFFFFFFFFFFFFFFFFFFFFFFFFFFFFFF AND DUP2 MSTORE PUSH1 0x20 ADD SWAP1 DUP2 MSTORE PUSH1 0x20 ADD PUSH1 0x0 KECCAK256 PUSH1 0x0 PUSH2 0x100 EXP DUP2 SLOAD DUP2 PUSH1 0xFF MUL NOT AND SWAP1 DUP4 ISZERO ISZERO MUL OR SWAP1 SSTORE POP PUSH3 0xF1 PUSH3 0x1BA PUSH1 0x20 SHL PUSH1 0x20 SHR JUMP JUMPDEST PUSH20 0xFFFFFFFFFFFFFFFFFFFFFFFFFFFFFFFFFFFFFFFF AND DUP2 PUSH20 0xFFFFFFFFFFFFFFFFFFFFFFFFFFFFFFFFFFFFFFFF AND DUP4 PUSH32 0x2F8788117E7EFF1D82E926EC794901D17C78024A50270940304540A733656F0D PUSH1 0x40 MLOAD PUSH1 0x40 MLOAD DUP1 SWAP2 SUB SWAP1 LOG4 JUMPDEST POP POP JUMP JUMPDEST PUSH1 0x0 DUP1 PUSH1 0x0 DUP5 DUP2 MSTORE PUSH1 0x20 ADD SWAP1 DUP2 MSTORE PUSH1 0x20 ADD PUSH1 0x0 KECCAK256 PUSH1 0x0 ADD PUSH1 0x0 DUP4 PUSH20 0xFFFFFFFFFFFFFFFFFFFFFFFFFFFFFFFFFFFFFFFF AND PUSH20 0xFFFFFFFFFFFFFFFFFFFFFFFFFFFFFFFFFFFFFFFF AND DUP2 MSTORE PUSH1 0x20 ADD SWAP1 DUP2 MSTORE PUSH1 0x20 ADD PUSH1 0x0 KECCAK256 PUSH1 0x0 SWAP1 SLOAD SWAP1 PUSH2 0x100 EXP SWAP1 DIV PUSH1 0xFF AND SWAP1 POP SWAP3 SWAP2 POP POP JUMP JUMPDEST PUSH1 0x0 CALLER SWAP1 POP SWAP1 JUMP JUMPDEST PUSH2 0x1F94 DUP1 PUSH3 0x1D2 PUSH1 0x0 CODECOPY PUSH1 0x0 RETURN INVALID PUSH1 0x80 PUSH1 0x40 MSTORE CALLVALUE DUP1 ISZERO PUSH2 0x10 JUMPI PUSH1 0x0 DUP1 REVERT JUMPDEST POP PUSH1 0x4 CALLDATASIZE LT PUSH2 0xF5 JUMPI PUSH1 0x0 CALLDATALOAD PUSH1 0xE0 SHR DUP1 PUSH4 0x75B238FC GT PUSH2 0x97 JUMPI DUP1 PUSH4 0xA217FDDF GT PUSH2 0x66 JUMPI DUP1 PUSH4 0xA217FDDF EQ PUSH2 0x29B JUMPI DUP1 PUSH4 0xD027CA7D EQ PUSH2 0x2B9 JUMPI DUP1 PUSH4 0xD3EEC717 EQ PUSH2 0x2E9 JUMPI DUP1 PUSH4 0xD547741F EQ PUSH2 0x319 JUMPI PUSH2 0xF5 JUMP JUMPDEST DUP1 PUSH4 0x75B238FC EQ PUSH2 0x1FA JUMPI DUP1 PUSH4 0x86E5C15A EQ PUSH2 0x218 JUMPI DUP1 PUSH4 0x91D14854 EQ PUSH2 0x236 JUMPI DUP1 PUSH4 0x995E4339 EQ PUSH2 0x266 JUMPI PUSH2 0xF5 JUMP JUMPDEST DUP1 PUSH4 0x2F2FF15D GT PUSH2 0xD3 JUMPI DUP1 PUSH4 0x2F2FF15D EQ PUSH2 0x18A JUMPI DUP1 PUSH4 0x36568ABE EQ PUSH2 0x1A6 JUMPI DUP1 PUSH4 0x3BC6E309 EQ PUSH2 0x1C2 JUMPI DUP1 PUSH4 0x52FF6846 EQ PUSH2 0x1DE JUMPI PUSH2 0xF5 JUMP JUMPDEST DUP1 PUSH4 0x1FFC9A7 EQ PUSH2 0xFA JUMPI DUP1 PUSH4 0x24464FD9 EQ PUSH2 0x12A JUMPI DUP1 PUSH4 0x248A9CA3 EQ PUSH2 0x15A JUMPI JUMPDEST PUSH1 0x0 DUP1 REVERT JUMPDEST PUSH2 0x114 PUSH1 0x4 DUP1 CALLDATASIZE SUB DUP2 ADD SWAP1 PUSH2 0x10F SWAP2 SWAP1 PUSH2 0x1163 JUMP JUMPDEST PUSH2 0x335 JUMP JUMPDEST PUSH1 0x40 MLOAD PUSH2 0x121 SWAP2 SWAP1 PUSH2 0x11AB JUMP JUMPDEST PUSH1 0x40 MLOAD DUP1 SWAP2 SUB SWAP1 RETURN JUMPDEST PUSH2 0x144 PUSH1 0x4 DUP1 CALLDATASIZE SUB DUP2 ADD SWAP1 PUSH2 0x13F SWAP2 SWAP1 PUSH2 0x130C JUMP JUMPDEST PUSH2 0x3AF JUMP JUMPDEST PUSH1 0x40 MLOAD PUSH2 0x151 SWAP2 SWAP1 PUSH2 0x13CC JUMP JUMPDEST PUSH1 0x40 MLOAD DUP1 SWAP2 SUB SWAP1 RETURN JUMPDEST PUSH2 0x174 PUSH1 0x4 DUP1 CALLDATASIZE SUB DUP2 ADD SWAP1 PUSH2 0x16F SWAP2 SWAP1 PUSH2 0x141D JUMP JUMPDEST PUSH2 0x57F JUMP JUMPDEST PUSH1 0x40 MLOAD PUSH2 0x181 SWAP2 SWAP1 PUSH2 0x1459 JUMP JUMPDEST PUSH1 0x40 MLOAD DUP1 SWAP2 SUB SWAP1 RETURN JUMPDEST PUSH2 0x1A4 PUSH1 0x4 DUP1 CALLDATASIZE SUB DUP2 ADD SWAP1 PUSH2 0x19F SWAP2 SWAP1 PUSH2 0x14D2 JUMP JUMPDEST PUSH2 0x59E JUMP JUMPDEST STOP JUMPDEST PUSH2 0x1C0 PUSH1 0x4 DUP1 CALLDATASIZE SUB DUP2 ADD SWAP1 PUSH2 0x1BB SWAP2 SWAP1 PUSH2 0x14D2 JUMP JUMPDEST PUSH2 0x5BF JUMP JUMPDEST STOP JUMPDEST PUSH2 0x1DC PUSH1 0x4 DUP1 CALLDATASIZE SUB DUP2 ADD SWAP1 PUSH2 0x1D7 SWAP2 SWAP1 PUSH2 0x1512 JUMP JUMPDEST PUSH2 0x642 JUMP JUMPDEST STOP JUMPDEST PUSH2 0x1F8 PUSH1 0x4 DUP1 CALLDATASIZE SUB DUP2 ADD SWAP1 PUSH2 0x1F3 SWAP2 SWAP1 PUSH2 0x1512 JUMP JUMPDEST PUSH2 0x6D1 JUMP JUMPDEST STOP JUMPDEST PUSH2 0x202 PUSH2 0x760 JUMP JUMPDEST PUSH1 0x40 MLOAD PUSH2 0x20F SWAP2 SWAP1 PUSH2 0x1459 JUMP JUMPDEST PUSH1 0x40 MLOAD DUP1 SWAP2 SUB SWAP1 RETURN JUMPDEST PUSH2 0x220 PUSH2 0x784 JUMP JUMPDEST PUSH1 0x40 MLOAD PUSH2 0x22D SWAP2 SWAP1 PUSH2 0x1459 JUMP JUMPDEST PUSH1 0x40 MLOAD DUP1 SWAP2 SUB SWAP1 RETURN JUMPDEST PUSH2 0x250 PUSH1 0x4 DUP1 CALLDATASIZE SUB DUP2 ADD SWAP1 PUSH2 0x24B SWAP2 SWAP1 PUSH2 0x14D2 JUMP JUMPDEST PUSH2 0x7A8 JUMP JUMPDEST PUSH1 0x40 MLOAD PUSH2 0x25D SWAP2 SWAP1 PUSH2 0x11AB JUMP JUMPDEST PUSH1 0x40 MLOAD DUP1 SWAP2 SUB SWAP1 RETURN JUMPDEST PUSH2 0x280 PUSH1 0x4 DUP1 CALLDATASIZE SUB DUP2 ADD SWAP1 PUSH2 0x27B SWAP2 SWAP1 PUSH2 0x156B JUMP JUMPDEST PUSH2 0x812 JUMP JUMPDEST PUSH1 0x40 MLOAD PUSH2 0x292 SWAP7 SWAP6 SWAP5 SWAP4 SWAP3 SWAP2 SWAP1 PUSH2 0x1626 JUMP JUMPDEST PUSH1 0x40 MLOAD DUP1 SWAP2 SUB SWAP1 RETURN JUMPDEST PUSH2 0x2A3 PUSH2 0xA92 JUMP JUMPDEST PUSH1 0x40 MLOAD PUSH2 0x2B0 SWAP2 SWAP1 PUSH2 0x1459 JUMP JUMPDEST PUSH1 0x40 MLOAD DUP1 SWAP2 SUB SWAP1 RETURN JUMPDEST PUSH2 0x2D3 PUSH1 0x4 DUP1 CALLDATASIZE SUB DUP2 ADD SWAP1 PUSH2 0x2CE SWAP2 SWAP1 PUSH2 0x169C JUMP JUMPDEST PUSH2 0xA99 JUMP JUMPDEST PUSH1 0x40 MLOAD PUSH2 0x2E0 SWAP2 SWAP1 PUSH2 0x11AB JUMP JUMPDEST PUSH1 0x40 MLOAD DUP1 SWAP2 SUB SWAP1 RETURN JUMPDEST PUSH2 0x303 PUSH1 0x4 DUP1 CALLDATASIZE SUB DUP2 ADD SWAP1 PUSH2 0x2FE SWAP2 SWAP1 PUSH2 0x16F8 JUMP JUMPDEST PUSH2 0xB07 JUMP JUMPDEST PUSH1 0x40 MLOAD PUSH2 0x310 SWAP2 SWAP1 PUSH2 0x17FF JUMP JUMPDEST PUSH1 0x40 MLOAD DUP1 SWAP2 SUB SWAP1 RETURN JUMPDEST PUSH2 0x333 PUSH1 0x4 DUP1 CALLDATASIZE SUB DUP2 ADD SWAP1 PUSH2 0x32E SWAP2 SWAP1 PUSH2 0x14D2 JUMP JUMPDEST PUSH2 0xB7D JUMP JUMPDEST STOP JUMPDEST PUSH1 0x0 PUSH32 0x7965DB0B00000000000000000000000000000000000000000000000000000000 PUSH28 0xFFFFFFFFFFFFFFFFFFFFFFFFFFFFFFFFFFFFFFFFFFFFFFFFFFFFFFFF NOT AND DUP3 PUSH28 0xFFFFFFFFFFFFFFFFFFFFFFFFFFFFFFFFFFFFFFFFFFFFFFFFFFFFFFFF NOT AND EQ DUP1 PUSH2 0x3A8 JUMPI POP PUSH2 0x3A7 DUP3 PUSH2 0xB9E JUMP JUMPDEST JUMPDEST SWAP1 POP SWAP2 SWAP1 POP JUMP JUMPDEST PUSH1 0x0 PUSH32 0xD16E204B8A42A15AB0EA6BB8EC1ECDFBE69F38074FC865323AF19EFE7D9573D9 PUSH2 0x3DB DUP2 PUSH2 0xC08 JUMP JUMPDEST PUSH1 0x0 PUSH2 0x3E7 PUSH1 0x1 PUSH2 0xC1C JUMP JUMPDEST SWAP1 POP PUSH2 0x3F3 PUSH1 0x1 PUSH2 0xC2A JUMP JUMPDEST PUSH1 0x0 PUSH1 0x40 MLOAD DUP1 PUSH1 0xC0 ADD PUSH1 0x40 MSTORE DUP1 DUP4 DUP2 MSTORE PUSH1 0x20 ADD DUP9 DUP2 MSTORE PUSH1 0x20 ADD DUP8 DUP2 MSTORE PUSH1 0x20 ADD DUP7 DUP2 MSTORE PUSH1 0x20 ADD TIMESTAMP DUP2 MSTORE PUSH1 0x20 ADD CALLER PUSH20 0xFFFFFFFFFFFFFFFFFFFFFFFFFFFFFFFFFFFFFFFF AND DUP2 MSTORE POP SWAP1 POP DUP1 PUSH1 0x2 PUSH1 0x0 DUP5 DUP2 MSTORE PUSH1 0x20 ADD SWAP1 DUP2 MSTORE PUSH1 0x20 ADD PUSH1 0x0 KECCAK256 PUSH1 0x0 DUP3 ADD MLOAD DUP2 PUSH1 0x0 ADD SSTORE PUSH1 0x20 DUP3 ADD MLOAD DUP2 PUSH1 0x1 ADD SWAP1 DUP2 PUSH2 0x46D SWAP2 SWAP1 PUSH2 0x1A2D JUMP JUMPDEST POP PUSH1 0x40 DUP3 ADD MLOAD DUP2 PUSH1 0x2 ADD SWAP1 DUP2 PUSH2 0x483 SWAP2 SWAP1 PUSH2 0x1A2D JUMP JUMPDEST POP PUSH1 0x60 DUP3 ADD MLOAD DUP2 PUSH1 0x3 ADD SWAP1 DUP2 PUSH2 0x499 SWAP2 SWAP1 PUSH2 0x1A2D JUMP JUMPDEST POP PUSH1 0x80 DUP3 ADD MLOAD DUP2 PUSH1 0x4 ADD SSTORE PUSH1 0xA0 DUP3 ADD MLOAD DUP2 PUSH1 0x5 ADD PUSH1 0x0 PUSH2 0x100 EXP DUP2 SLOAD DUP2 PUSH20 0xFFFFFFFFFFFFFFFFFFFFFFFFFFFFFFFFFFFFFFFF MUL NOT AND SWAP1 DUP4 PUSH20 0xFFFFFFFFFFFFFFFFFFFFFFFFFFFFFFFFFFFFFFFF AND MUL OR SWAP1 SSTORE POP SWAP1 POP POP PUSH1 0x3 DUP8 PUSH1 0x40 MLOAD PUSH2 0x4FE SWAP2 SWAP1 PUSH2 0x1B3B JUMP JUMPDEST SWAP1 DUP2 MSTORE PUSH1 0x20 ADD PUSH1 0x40 MLOAD DUP1 SWAP2 SUB SWAP1 KECCAK256 DUP3 SWAP1 DUP1 PUSH1 0x1 DUP2 SLOAD ADD DUP1 DUP3 SSTORE DUP1 SWAP2 POP POP PUSH1 0x1 SWAP1 SUB SWAP1 PUSH1 0x0 MSTORE PUSH1 0x20 PUSH1 0x0 KECCAK256 ADD PUSH1 0x0 SWAP1 SWAP2 SWAP1 SWAP2 SWAP1 SWAP2 POP SSTORE PUSH32 0x6B8FDE9FE806CABA1564D9E80312A51021C253BF66570F5B69CAC752BFA3EA0B DUP3 DUP9 DUP9 DUP9 CALLER PUSH1 0x40 MLOAD PUSH2 0x56A SWAP6 SWAP5 SWAP4 SWAP3 SWAP2 SWAP1 PUSH2 0x1B52 JUMP JUMPDEST PUSH1 0x40 MLOAD DUP1 SWAP2 SUB SWAP1 LOG1 DUP2 SWAP4 POP POP POP POP SWAP4 SWAP3 POP POP POP JUMP JUMPDEST PUSH1 0x0 DUP1 PUSH1 0x0 DUP4 DUP2 MSTORE PUSH1 0x20 ADD SWAP1 DUP2 MSTORE PUSH1 0x20 ADD PUSH1 0x0 KECCAK256 PUSH1 0x1 ADD SLOAD SWAP1 POP SWAP2 SWAP1 POP JUMP JUMPDEST PUSH2 0x5A7 DUP3 PUSH2 0x57F JUMP JUMPDEST PUSH2 0x5B0 DUP2 PUSH2 0xC08 JUMP JUMPDEST PUSH2 0x5BA DUP4 DUP4 PUSH2 0xC40 JUMP JUMPDEST POP POP POP JUMP JUMPDEST PUSH2 0x5C7 PUSH2 0xD20 JUMP JUMPDEST PUSH20 0xFFFFFFFFFFFFFFFFFFFFFFFFFFFFFFFFFFFFFFFF AND DUP2 PUSH20 0xFFFFFFFFFFFFFFFFFFFFFFFFFFFFFFFFFFFFFFFF AND EQ PUSH2 0x634 JUMPI PUSH1 0x40 MLOAD PUSH32 0x8C379A000000000000000000000000000000000000000000000000000000000 DUP2 MSTORE PUSH1 0x4 ADD PUSH2 0x62B SWAP1 PUSH2 0x1C2C JUMP JUMPDEST PUSH1 0x40 MLOAD DUP1 SWAP2 SUB SWAP1 REVERT JUMPDEST PUSH2 0x63E DUP3 DUP3 PUSH2 0xD28 JUMP JUMPDEST POP POP JUMP JUMPDEST PUSH32 0xA49807205CE4D355092EF5A8A18F56E8913CF4A201FBE287825B095693C21775 PUSH2 0x66C DUP2 PUSH2 0xC08 JUMP JUMPDEST PUSH2 0x696 PUSH32 0xD16E204B8A42A15AB0EA6BB8EC1ECDFBE69F38074FC865323AF19EFE7D9573D9 DUP4 PUSH2 0x59E JUMP JUMPDEST PUSH32 0x4E1C63D2B2FAFCA3496EA9C3F23B77835B9A91F5D74802CED76B7F929B3265E DUP3 PUSH1 0x40 MLOAD PUSH2 0x6C5 SWAP2 SWAP1 PUSH2 0x1C4C JUMP JUMPDEST PUSH1 0x40 MLOAD DUP1 SWAP2 SUB SWAP1 LOG1 POP POP JUMP JUMPDEST PUSH32 0xA49807205CE4D355092EF5A8A18F56E8913CF4A201FBE287825B095693C21775 PUSH2 0x6FB DUP2 PUSH2 0xC08 JUMP JUMPDEST PUSH2 0x725 PUSH32 0xD16E204B8A42A15AB0EA6BB8EC1ECDFBE69F38074FC865323AF19EFE7D9573D9 DUP4 PUSH2 0xB7D JUMP JUMPDEST PUSH32 0x24A5DD50126818A1D488F90DF37AD02592196A4EA744AFF4799818139297734 DUP3 PUSH1 0x40 MLOAD PUSH2 0x754 SWAP2 SWAP1 PUSH2 0x1C4C JUMP JUMPDEST PUSH1 0x40 MLOAD DUP1 SWAP2 SUB SWAP1 LOG1 POP POP JUMP JUMPDEST PUSH32 0xA49807205CE4D355092EF5A8A18F56E8913CF4A201FBE287825B095693C21775 DUP2 JUMP JUMPDEST PUSH32 0xD16E204B8A42A15AB0EA6BB8EC1ECDFBE69F38074FC865323AF19EFE7D9573D9 DUP2 JUMP JUMPDEST PUSH1 0x0 DUP1 PUSH1 0x0 DUP5 DUP2 MSTORE PUSH1 0x20 ADD SWAP1 DUP2 MSTORE PUSH1 0x20 ADD PUSH1 0x0 KECCAK256 PUSH1 0x0 ADD PUSH1 0x0 DUP4 PUSH20 0xFFFFFFFFFFFFFFFFFFFFFFFFFFFFFFFFFFFFFFFF AND PUSH20 0xFFFFFFFFFFFFFFFFFFFFFFFFFFFFFFFFFFFFFFFF AND DUP2 MSTORE PUSH1 0x20 ADD SWAP1 DUP2 MSTORE PUSH1 0x20 ADD PUSH1 0x0 KECCAK256 PUSH1 0x0 SWAP1 SLOAD SWAP1 PUSH2 0x100 EXP SWAP1 DIV PUSH1 0xFF AND SWAP1 POP SWAP3 SWAP2 POP POP JUMP JUMPDEST PUSH1 0x0 PUSH1 0x60 DUP1 PUSH1 0x60 PUSH1 0x0 DUP1 PUSH1 0x0 PUSH1 0x2 PUSH1 0x0 DUP10 DUP2 MSTORE PUSH1 0x20 ADD SWAP1 DUP2 MSTORE PUSH1 0x20 ADD PUSH1 0x0 KECCAK256 PUSH1 0x40 MLOAD DUP1 PUSH1 0xC0 ADD PUSH1 0x40 MSTORE SWAP1 DUP2 PUSH1 0x0 DUP3 ADD SLOAD DUP2 MSTORE PUSH1 0x20 ADD PUSH1 0x1 DUP3 ADD DUP1 SLOAD PUSH2 0x856 SWAP1 PUSH2 0x1850 JUMP JUMPDEST DUP1 PUSH1 0x1F ADD PUSH1 0x20 DUP1 SWAP2 DIV MUL PUSH1 0x20 ADD PUSH1 0x40 MLOAD SWAP1 DUP2 ADD PUSH1 0x40 MSTORE DUP1 SWAP3 SWAP2 SWAP1 DUP2 DUP2 MSTORE PUSH1 0x20 ADD DUP3 DUP1 SLOAD PUSH2 0x882 SWAP1 PUSH2 0x1850 JUMP JUMPDEST DUP1 ISZERO PUSH2 0x8CF JUMPI DUP1 PUSH1 0x1F LT PUSH2 0x8A4 JUMPI PUSH2 0x100 DUP1 DUP4 SLOAD DIV MUL DUP4 MSTORE SWAP2 PUSH1 0x20 ADD SWAP2 PUSH2 0x8CF JUMP JUMPDEST DUP3 ADD SWAP2 SWAP1 PUSH1 0x0 MSTORE PUSH1 0x20 PUSH1 0x0 KECCAK256 SWAP1 JUMPDEST DUP2 SLOAD DUP2 MSTORE SWAP1 PUSH1 0x1 ADD SWAP1 PUSH1 0x20 ADD DUP1 DUP4 GT PUSH2 0x8B2 JUMPI DUP3 SWAP1 SUB PUSH1 0x1F AND DUP3 ADD SWAP2 JUMPDEST POP POP POP POP POP DUP2 MSTORE PUSH1 0x20 ADD PUSH1 0x2 DUP3 ADD DUP1 SLOAD PUSH2 0x8E8 SWAP1 PUSH2 0x1850 JUMP JUMPDEST DUP1 PUSH1 0x1F ADD PUSH1 0x20 DUP1 SWAP2 DIV MUL PUSH1 0x20 ADD PUSH1 0x40 MLOAD SWAP1 DUP2 ADD PUSH1 0x40 MSTORE DUP1 SWAP3 SWAP2 SWAP1 DUP2 DUP2 MSTORE PUSH1 0x20 ADD DUP3 DUP1 SLOAD PUSH2 0x914 SWAP1 PUSH2 0x1850 JUMP JUMPDEST DUP1 ISZERO PUSH2 0x961 JUMPI DUP1 PUSH1 0x1F LT PUSH2 0x936 JUMPI PUSH2 0x100 DUP1 DUP4 SLOAD DIV MUL DUP4 MSTORE SWAP2 PUSH1 0x20 ADD SWAP2 PUSH2 0x961 JUMP JUMPDEST DUP3 ADD SWAP2 SWAP1 PUSH1 0x0 MSTORE PUSH1 0x20 PUSH1 0x0 KECCAK256 SWAP1 JUMPDEST DUP2 SLOAD DUP2 MSTORE SWAP1 PUSH1 0x1 ADD SWAP1 PUSH1 0x20 ADD DUP1 DUP4 GT PUSH2 0x944 JUMPI DUP3 SWAP1 SUB PUSH1 0x1F AND DUP3 ADD SWAP2 JUMPDEST POP POP POP POP POP DUP2 MSTORE PUSH1 0x20 ADD PUSH1 0x3 DUP3 ADD DUP1 SLOAD PUSH2 0x97A SWAP1 PUSH2 0x1850 JUMP JUMPDEST DUP1 PUSH1 0x1F ADD PUSH1 0x20 DUP1 SWAP2 DIV MUL PUSH1 0x20 ADD PUSH1 0x40 MLOAD SWAP1 DUP2 ADD PUSH1 0x40 MSTORE DUP1 SWAP3 SWAP2 SWAP1 DUP2 DUP2 MSTORE PUSH1 0x20 ADD DUP3 DUP1 SLOAD PUSH2 0x9A6 SWAP1 PUSH2 0x1850 JUMP JUMPDEST DUP1 ISZERO PUSH2 0x9F3 JUMPI DUP1 PUSH1 0x1F LT PUSH2 0x9C8 JUMPI PUSH2 0x100 DUP1 DUP4 SLOAD DIV MUL DUP4 MSTORE SWAP2 PUSH1 0x20 ADD SWAP2 PUSH2 0x9F3 JUMP JUMPDEST DUP3 ADD SWAP2 SWAP1 PUSH1 0x0 MSTORE PUSH1 0x20 PUSH1 0x0 KECCAK256 SWAP1 JUMPDEST DUP2 SLOAD DUP2 MSTORE SWAP1 PUSH1 0x1 ADD SWAP1 PUSH1 0x20 ADD DUP1 DUP4 GT PUSH2 0x9D6 JUMPI DUP3 SWAP1 SUB PUSH1 0x1F AND DUP3 ADD SWAP2 JUMPDEST POP POP POP POP POP DUP2 MSTORE PUSH1 0x20 ADD PUSH1 0x4 DUP3 ADD SLOAD DUP2 MSTORE PUSH1 0x20 ADD PUSH1 0x5 DUP3 ADD PUSH1 0x0 SWAP1 SLOAD SWAP1 PUSH2 0x100 EXP SWAP1 DIV PUSH20 0xFFFFFFFFFFFFFFFFFFFFFFFFFFFFFFFFFFFFFFFF AND PUSH20 0xFFFFFFFFFFFFFFFFFFFFFFFFFFFFFFFFFFFFFFFF AND PUSH20 0xFFFFFFFFFFFFFFFFFFFFFFFFFFFFFFFFFFFFFFFF AND DUP2 MSTORE POP POP SWAP1 POP DUP1 PUSH1 0x0 ADD MLOAD DUP2 PUSH1 0x20 ADD MLOAD DUP3 PUSH1 0x40 ADD MLOAD DUP4 PUSH1 0x60 ADD MLOAD DUP5 PUSH1 0x80 ADD MLOAD DUP6 PUSH1 0xA0 ADD MLOAD SWAP7 POP SWAP7 POP SWAP7 POP SWAP7 POP SWAP7 POP SWAP7 POP POP SWAP2 SWAP4 SWAP6 POP SWAP2 SWAP4 SWAP6 JUMP JUMPDEST PUSH1 0x0 DUP1 SHL DUP2 JUMP JUMPDEST PUSH1 0x0 DUP2 PUSH1 0x40 MLOAD PUSH1 0x20 ADD PUSH2 0xAAC SWAP2 SWAP1 PUSH2 0x1B3B JUMP JUMPDEST PUSH1 0x40 MLOAD PUSH1 0x20 DUP2 DUP4 SUB SUB DUP2 MSTORE SWAP1 PUSH1 0x40 MSTORE DUP1 MLOAD SWAP1 PUSH1 0x20 ADD KECCAK256 PUSH1 0x2 PUSH1 0x0 DUP6 DUP2 MSTORE PUSH1 0x20 ADD SWAP1 DUP2 MSTORE PUSH1 0x20 ADD PUSH1 0x0 KECCAK256 PUSH1 0x3 ADD PUSH1 0x40 MLOAD PUSH1 0x20 ADD PUSH2 0xAE8 SWAP2 SWAP1 PUSH2 0x1CEA JUMP JUMPDEST PUSH1 0x40 MLOAD PUSH1 0x20 DUP2 DUP4 SUB SUB DUP2 MSTORE SWAP1 PUSH1 0x40 MSTORE DUP1 MLOAD SWAP1 PUSH1 0x20 ADD KECCAK256 EQ SWAP1 POP SWAP3 SWAP2 POP POP JUMP JUMPDEST PUSH1 0x60 PUSH1 0x3 DUP3 PUSH1 0x40 MLOAD PUSH2 0xB19 SWAP2 SWAP1 PUSH2 0x1B3B JUMP JUMPDEST SWAP1 DUP2 MSTORE PUSH1 0x20 ADD PUSH1 0x40 MLOAD DUP1 SWAP2 SUB SWAP1 KECCAK256 DUP1 SLOAD DUP1 PUSH1 0x20 MUL PUSH1 0x20 ADD PUSH1 0x40 MLOAD SWAP1 DUP2 ADD PUSH1 0x40 MSTORE DUP1 SWAP3 SWAP2 SWAP1 DUP2 DUP2 MSTORE PUSH1 0x20 ADD DUP3 DUP1 SLOAD DUP1 ISZERO PUSH2 0xB71 JUMPI PUSH1 0x20 MUL DUP3 ADD SWAP2 SWAP1 PUSH1 0x0 MSTORE PUSH1 0x20 PUSH1 0x0 KECCAK256 SWAP1 JUMPDEST DUP2 SLOAD DUP2 MSTORE PUSH1 0x20 ADD SWAP1 PUSH1 0x1 ADD SWAP1 DUP1 DUP4 GT PUSH2 0xB5D JUMPI JUMPDEST POP POP POP POP POP SWAP1 POP SWAP2 SWAP1 POP JUMP JUMPDEST PUSH2 0xB86 DUP3 PUSH2 0x57F JUMP JUMPDEST PUSH2 0xB8F DUP2 PUSH2 0xC08 JUMP JUMPDEST PUSH2 0xB99 DUP4 DUP4 PUSH2 0xD28 JUMP JUMPDEST POP POP POP JUMP JUMPDEST PUSH1 0x0 PUSH32 0x1FFC9A700000000000000000000000000000000000000000000000000000000 PUSH28 0xFFFFFFFFFFFFFFFFFFFFFFFFFFFFFFFFFFFFFFFFFFFFFFFFFFFFFFFF NOT AND DUP3 PUSH28 0xFFFFFFFFFFFFFFFFFFFFFFFFFFFFFFFFFFFFFFFFFFFFFFFFFFFFFFFF NOT AND EQ SWAP1 POP SWAP2 SWAP1 POP JUMP JUMPDEST PUSH2 0xC19 DUP2 PUSH2 0xC14 PUSH2 0xD20 JUMP JUMPDEST PUSH2 0xE09 JUMP JUMPDEST POP JUMP JUMPDEST PUSH1 0x0 DUP2 PUSH1 0x0 ADD SLOAD SWAP1 POP SWAP2 SWAP1 POP JUMP JUMPDEST PUSH1 0x1 DUP2 PUSH1 0x0 ADD PUSH1 0x0 DUP3 DUP3 SLOAD ADD SWAP3 POP POP DUP2 SWAP1 SSTORE POP POP JUMP JUMPDEST PUSH2 0xC4A DUP3 DUP3 PUSH2 0x7A8 JUMP JUMPDEST PUSH2 0xD1C JUMPI PUSH1 0x1 PUSH1 0x0 DUP1 DUP5 DUP2 MSTORE PUSH1 0x20 ADD SWAP1 DUP2 MSTORE PUSH1 0x20 ADD PUSH1 0x0 KECCAK256 PUSH1 0x0 ADD PUSH1 0x0 DUP4 PUSH20 0xFFFFFFFFFFFFFFFFFFFFFFFFFFFFFFFFFFFFFFFF AND PUSH20 0xFFFFFFFFFFFFFFFFFFFFFFFFFFFFFFFFFFFFFFFF AND DUP2 MSTORE PUSH1 0x20 ADD SWAP1 DUP2 MSTORE PUSH1 0x20 ADD PUSH1 0x0 KECCAK256 PUSH1 0x0 PUSH2 0x100 EXP DUP2 SLOAD DUP2 PUSH1 0xFF MUL NOT AND SWAP1 DUP4 ISZERO ISZERO MUL OR SWAP1 SSTORE POP PUSH2 0xCC1 PUSH2 0xD20 JUMP JUMPDEST PUSH20 0xFFFFFFFFFFFFFFFFFFFFFFFFFFFFFFFFFFFFFFFF AND DUP2 PUSH20 0xFFFFFFFFFFFFFFFFFFFFFFFFFFFFFFFFFFFFFFFF AND DUP4 PUSH32 0x2F8788117E7EFF1D82E926EC794901D17C78024A50270940304540A733656F0D PUSH1 0x40 MLOAD PUSH1 0x40 MLOAD DUP1 SWAP2 SUB SWAP1 LOG4 JUMPDEST POP POP JUMP JUMPDEST PUSH1 0x0 CALLER SWAP1 POP SWAP1 JUMP JUMPDEST PUSH2 0xD32 DUP3 DUP3 PUSH2 0x7A8 JUMP JUMPDEST ISZERO PUSH2 0xE05 JUMPI PUSH1 0x0 DUP1 PUSH1 0x0 DUP5 DUP2 MSTORE PUSH1 0x20 ADD SWAP1 DUP2 MSTORE PUSH1 0x20 ADD PUSH1 0x0 KECCAK256 PUSH1 0x0 ADD PUSH1 0x0 DUP4 PUSH20 0xFFFFFFFFFFFFFFFFFFFFFFFFFFFFFFFFFFFFFFFF AND PUSH20 0xFFFFFFFFFFFFFFFFFFFFFFFFFFFFFFFFFFFFFFFF AND DUP2 MSTORE PUSH1 0x20 ADD SWAP1 DUP2 MSTORE PUSH1 0x20 ADD PUSH1 0x0 KECCAK256 PUSH1 0x0 PUSH2 0x100 EXP DUP2 SLOAD DUP2 PUSH1 0xFF MUL NOT AND SWAP1 DUP4 ISZERO ISZERO MUL OR SWAP1 SSTORE POP PUSH2 0xDAA PUSH2 0xD20 JUMP JUMPDEST PUSH20 0xFFFFFFFFFFFFFFFFFFFFFFFFFFFFFFFFFFFFFFFF AND DUP2 PUSH20 0xFFFFFFFFFFFFFFFFFFFFFFFFFFFFFFFFFFFFFFFF AND DUP4 PUSH32 0xF6391F5C32D9C69D2A47EA670B442974B53935D1EDC7FD64EB21E047A839171B PUSH1 0x40 MLOAD PUSH1 0x40 MLOAD DUP1 SWAP2 SUB SWAP1 LOG4 JUMPDEST POP POP JUMP JUMPDEST PUSH2 0xE13 DUP3 DUP3 PUSH2 0x7A8 JUMP JUMPDEST PUSH2 0xE8A JUMPI PUSH2 0xE20 DUP2 PUSH2 0xE8E JUMP JUMPDEST PUSH2 0xE2E DUP4 PUSH1 0x0 SHR PUSH1 0x20 PUSH2 0xEBB JUMP JUMPDEST PUSH1 0x40 MLOAD PUSH1 0x20 ADD PUSH2 0xE3F SWAP3 SWAP2 SWAP1 PUSH2 0x1D99 JUMP JUMPDEST PUSH1 0x40 MLOAD PUSH1 0x20 DUP2 DUP4 SUB SUB DUP2 MSTORE SWAP1 PUSH1 0x40 MSTORE PUSH1 0x40 MLOAD PUSH32 0x8C379A000000000000000000000000000000000000000000000000000000000 DUP2 MSTORE PUSH1 0x4 ADD PUSH2 0xE81 SWAP2 SWAP1 PUSH2 0x1DD3 JUMP JUMPDEST PUSH1 0x40 MLOAD DUP1 SWAP2 SUB SWAP1 REVERT JUMPDEST POP POP JUMP JUMPDEST PUSH1 0x60 PUSH2 0xEB4 DUP3 PUSH20 0xFFFFFFFFFFFFFFFFFFFFFFFFFFFFFFFFFFFFFFFF AND PUSH1 0x14 PUSH1 0xFF AND PUSH2 0xEBB JUMP JUMPDEST SWAP1 POP SWAP2 SWAP1 POP JUMP JUMPDEST PUSH1 0x60 PUSH1 0x0 PUSH1 0x2 DUP4 PUSH1 0x2 PUSH2 0xECE SWAP2 SWAP1 PUSH2 0x1E24 JUMP JUMPDEST PUSH2 0xED8 SWAP2 SWAP1 PUSH2 0x1E66 JUMP JUMPDEST PUSH8 0xFFFFFFFFFFFFFFFF DUP2 GT ISZERO PUSH2 0xEF1 JUMPI PUSH2 0xEF0 PUSH2 0x11E1 JUMP JUMPDEST JUMPDEST PUSH1 0x40 MLOAD SWAP1 DUP1 DUP3 MSTORE DUP1 PUSH1 0x1F ADD PUSH1 0x1F NOT AND PUSH1 0x20 ADD DUP3 ADD PUSH1 0x40 MSTORE DUP1 ISZERO PUSH2 0xF23 JUMPI DUP2 PUSH1 0x20 ADD PUSH1 0x1 DUP3 MUL DUP1 CALLDATASIZE DUP4 CALLDATACOPY DUP1 DUP3 ADD SWAP2 POP POP SWAP1 POP JUMPDEST POP SWAP1 POP PUSH32 0x3000000000000000000000000000000000000000000000000000000000000000 DUP2 PUSH1 0x0 DUP2 MLOAD DUP2 LT PUSH2 0xF5B JUMPI PUSH2 0xF5A PUSH2 0x1E9A JUMP JUMPDEST JUMPDEST PUSH1 0x20 ADD ADD SWAP1 PUSH31 0xFFFFFFFFFFFFFFFFFFFFFFFFFFFFFFFFFFFFFFFFFFFFFFFFFFFFFFFFFFFFFF NOT AND SWAP1 DUP2 PUSH1 0x0 BYTE SWAP1 MSTORE8 POP PUSH32 0x7800000000000000000000000000000000000000000000000000000000000000 DUP2 PUSH1 0x1 DUP2 MLOAD DUP2 LT PUSH2 0xFBF JUMPI PUSH2 0xFBE PUSH2 0x1E9A JUMP JUMPDEST JUMPDEST PUSH1 0x20 ADD ADD SWAP1 PUSH31 0xFFFFFFFFFFFFFFFFFFFFFFFFFFFFFFFFFFFFFFFFFFFFFFFFFFFFFFFFFFFFFF NOT AND SWAP1 DUP2 PUSH1 0x0 BYTE SWAP1 MSTORE8 POP PUSH1 0x0 PUSH1 0x1 DUP5 PUSH1 0x2 PUSH2 0xFFF SWAP2 SWAP1 PUSH2 0x1E24 JUMP JUMPDEST PUSH2 0x1009 SWAP2 SWAP1 PUSH2 0x1E66 JUMP JUMPDEST SWAP1 POP JUMPDEST PUSH1 0x1 DUP2 GT ISZERO PUSH2 0x10A9 JUMPI PUSH32 0x3031323334353637383961626364656600000000000000000000000000000000 PUSH1 0xF DUP7 AND PUSH1 0x10 DUP2 LT PUSH2 0x104B JUMPI PUSH2 0x104A PUSH2 0x1E9A JUMP JUMPDEST JUMPDEST BYTE PUSH1 0xF8 SHL DUP3 DUP3 DUP2 MLOAD DUP2 LT PUSH2 0x1062 JUMPI PUSH2 0x1061 PUSH2 0x1E9A JUMP JUMPDEST JUMPDEST PUSH1 0x20 ADD ADD SWAP1 PUSH31 0xFFFFFFFFFFFFFFFFFFFFFFFFFFFFFFFFFFFFFFFFFFFFFFFFFFFFFFFFFFFFFF NOT AND SWAP1 DUP2 PUSH1 0x0 BYTE SWAP1 MSTORE8 POP PUSH1 0x4 DUP6 SWAP1 SHR SWAP5 POP DUP1 PUSH2 0x10A2 SWAP1 PUSH2 0x1EC9 JUMP JUMPDEST SWAP1 POP PUSH2 0x100C JUMP JUMPDEST POP PUSH1 0x0 DUP5 EQ PUSH2 0x10ED JUMPI PUSH1 0x40 MLOAD PUSH32 0x8C379A000000000000000000000000000000000000000000000000000000000 DUP2 MSTORE PUSH1 0x4 ADD PUSH2 0x10E4 SWAP1 PUSH2 0x1F3E JUMP JUMPDEST PUSH1 0x40 MLOAD DUP1 SWAP2 SUB SWAP1 REVERT JUMPDEST DUP1 SWAP2 POP POP SWAP3 SWAP2 POP POP JUMP JUMPDEST PUSH1 0x0 PUSH1 0x40 MLOAD SWAP1 POP SWAP1 JUMP JUMPDEST PUSH1 0x0 DUP1 REVERT JUMPDEST PUSH1 0x0 DUP1 REVERT JUMPDEST PUSH1 0x0 PUSH32 0xFFFFFFFF00000000000000000000000000000000000000000000000000000000 DUP3 AND SWAP1 POP SWAP2 SWAP1 POP JUMP JUMPDEST PUSH2 0x1140 DUP2 PUSH2 0x110B JUMP JUMPDEST DUP2 EQ PUSH2 0x114B JUMPI PUSH1 0x0 DUP1 REVERT JUMPDEST POP JUMP JUMPDEST PUSH1 0x0 DUP2 CALLDATALOAD SWAP1 POP PUSH2 0x115D DUP2 PUSH2 0x1137 JUMP JUMPDEST SWAP3 SWAP2 POP POP JUMP JUMPDEST PUSH1 0x0 PUSH1 0x20 DUP3 DUP5 SUB SLT ISZERO PUSH2 0x1179 JUMPI PUSH2 0x1178 PUSH2 0x1101 JUMP JUMPDEST JUMPDEST PUSH1 0x0 PUSH2 0x1187 DUP5 DUP3 DUP6 ADD PUSH2 0x114E JUMP JUMPDEST SWAP2 POP POP SWAP3 SWAP2 POP POP JUMP JUMPDEST PUSH1 0x0 DUP2 ISZERO ISZERO SWAP1 POP SWAP2 SWAP1 POP JUMP JUMPDEST PUSH2 0x11A5 DUP2 PUSH2 0x1190 JUMP JUMPDEST DUP3 MSTORE POP POP JUMP JUMPDEST PUSH1 0x0 PUSH1 0x20 DUP3 ADD SWAP1 POP PUSH2 0x11C0 PUSH1 0x0 DUP4 ADD DUP5 PUSH2 0x119C JUMP JUMPDEST SWAP3 SWAP2 POP POP JUMP JUMPDEST PUSH1 0x0 DUP1 REVERT JUMPDEST PUSH1 0x0 DUP1 REVERT JUMPDEST PUSH1 0x0 PUSH1 0x1F NOT PUSH1 0x1F DUP4 ADD AND SWAP1 POP SWAP2 SWAP1 POP JUMP JUMPDEST PUSH32 0x4E487B7100000000000000000000000000000000000000000000000000000000 PUSH1 0x0 MSTORE PUSH1 0x41 PUSH1 0x4 MSTORE PUSH1 0x24 PUSH1 0x0 REVERT JUMPDEST PUSH2 0x1219 DUP3 PUSH2 0x11D0 JUMP JUMPDEST DUP2 ADD DUP2 DUP2 LT PUSH8 0xFFFFFFFFFFFFFFFF DUP3 GT OR ISZERO PUSH2 0x1238 JUMPI PUSH2 0x1237 PUSH2 0x11E1 JUMP JUMPDEST JUMPDEST DUP1 PUSH1 0x40 MSTORE POP POP POP JUMP JUMPDEST PUSH1 0x0 PUSH2 0x124B PUSH2 0x10F7 JUMP JUMPDEST SWAP1 POP PUSH2 0x1257 DUP3 DUP3 PUSH2 0x1210 JUMP JUMPDEST SWAP2 SWAP1 POP JUMP JUMPDEST PUSH1 0x0 PUSH8 0xFFFFFFFFFFFFFFFF DUP3 GT ISZERO PUSH2 0x1277 JUMPI PUSH2 0x1276 PUSH2 0x11E1 JUMP JUMPDEST JUMPDEST PUSH2 0x1280 DUP3 PUSH2 0x11D0 JUMP JUMPDEST SWAP1 POP PUSH1 0x20 DUP2 ADD SWAP1 POP SWAP2 SWAP1 POP JUMP JUMPDEST DUP3 DUP2 DUP4 CALLDATACOPY PUSH1 0x0 DUP4 DUP4 ADD MSTORE POP POP POP JUMP JUMPDEST PUSH1 0x0 PUSH2 0x12AF PUSH2 0x12AA DUP5 PUSH2 0x125C JUMP JUMPDEST PUSH2 0x1241 JUMP JUMPDEST SWAP1 POP DUP3 DUP2 MSTORE PUSH1 0x20 DUP2 ADD DUP5 DUP5 DUP5 ADD GT ISZERO PUSH2 0x12CB JUMPI PUSH2 0x12CA PUSH2 0x11CB JUMP JUMPDEST JUMPDEST PUSH2 0x12D6 DUP5 DUP3 DUP6 PUSH2 0x128D JUMP JUMPDEST POP SWAP4 SWAP3 POP POP POP JUMP JUMPDEST PUSH1 0x0 DUP3 PUSH1 0x1F DUP4 ADD SLT PUSH2 0x12F3 JUMPI PUSH2 0x12F2 PUSH2 0x11C6 JUMP JUMPDEST JUMPDEST DUP2 CALLDATALOAD PUSH2 0x1303 DUP5 DUP3 PUSH1 0x20 DUP7 ADD PUSH2 0x129C JUMP JUMPDEST SWAP2 POP POP SWAP3 SWAP2 POP POP JUMP JUMPDEST PUSH1 0x0 DUP1 PUSH1 0x0 PUSH1 0x60 DUP5 DUP7 SUB SLT ISZERO PUSH2 0x1325 JUMPI PUSH2 0x1324 PUSH2 0x1101 JUMP JUMPDEST JUMPDEST PUSH1 0x0 DUP5 ADD CALLDATALOAD PUSH8 0xFFFFFFFFFFFFFFFF DUP2 GT ISZERO PUSH2 0x1343 JUMPI PUSH2 0x1342 PUSH2 0x1106 JUMP JUMPDEST JUMPDEST PUSH2 0x134F DUP7 DUP3 DUP8 ADD PUSH2 0x12DE JUMP JUMPDEST SWAP4 POP POP PUSH1 0x20 DUP5 ADD CALLDATALOAD PUSH8 0xFFFFFFFFFFFFFFFF DUP2 GT ISZERO PUSH2 0x1370 JUMPI PUSH2 0x136F PUSH2 0x1106 JUMP JUMPDEST JUMPDEST PUSH2 0x137C DUP7 DUP3 DUP8 ADD PUSH2 0x12DE JUMP JUMPDEST SWAP3 POP POP PUSH1 0x40 DUP5 ADD CALLDATALOAD PUSH8 0xFFFFFFFFFFFFFFFF DUP2 GT ISZERO PUSH2 0x139D JUMPI PUSH2 0x139C PUSH2 0x1106 JUMP JUMPDEST JUMPDEST PUSH2 0x13A9 DUP7 DUP3 DUP8 ADD PUSH2 0x12DE JUMP JUMPDEST SWAP2 POP POP SWAP3 POP SWAP3 POP SWAP3 JUMP JUMPDEST PUSH1 0x0 DUP2 SWAP1 POP SWAP2 SWAP1 POP JUMP JUMPDEST PUSH2 0x13C6 DUP2 PUSH2 0x13B3 JUMP JUMPDEST DUP3 MSTORE POP POP JUMP JUMPDEST PUSH1 0x0 PUSH1 0x20 DUP3 ADD SWAP1 POP PUSH2 0x13E1 PUSH1 0x0 DUP4 ADD DUP5 PUSH2 0x13BD JUMP JUMPDEST SWAP3 SWAP2 POP POP JUMP JUMPDEST PUSH1 0x0 DUP2 SWAP1 POP SWAP2 SWAP1 POP JUMP JUMPDEST PUSH2 0x13FA DUP2 PUSH2 0x13E7 JUMP JUMPDEST DUP2 EQ PUSH2 0x1405 JUMPI PUSH1 0x0 DUP1 REVERT JUMPDEST POP JUMP JUMPDEST PUSH1 0x0 DUP2 CALLDATALOAD SWAP1 POP PUSH2 0x1417 DUP2 PUSH2 0x13F1 JUMP JUMPDEST SWAP3 SWAP2 POP POP JUMP JUMPDEST PUSH1 0x0 PUSH1 0x20 DUP3 DUP5 SUB SLT ISZERO PUSH2 0x1433 JUMPI PUSH2 0x1432 PUSH2 0x1101 JUMP JUMPDEST JUMPDEST PUSH1 0x0 PUSH2 0x1441 DUP5 DUP3 DUP6 ADD PUSH2 0x1408 JUMP JUMPDEST SWAP2 POP POP SWAP3 SWAP2 POP POP JUMP JUMPDEST PUSH2 0x1453 DUP2 PUSH2 0x13E7 JUMP JUMPDEST DUP3 MSTORE POP POP JUMP JUMPDEST PUSH1 0x0 PUSH1 0x20 DUP3 ADD SWAP1 POP PUSH2 0x146E PUSH1 0x0 DUP4 ADD DUP5 PUSH2 0x144A JUMP JUMPDEST SWAP3 SWAP2 POP POP JUMP JUMPDEST PUSH1 0x0 PUSH20 0xFFFFFFFFFFFFFFFFFFFFFFFFFFFFFFFFFFFFFFFF DUP3 AND SWAP1 POP SWAP2 SWAP1 POP JUMP JUMPDEST PUSH1 0x0 PUSH2 0x149F DUP3 PUSH2 0x1474 JUMP JUMPDEST SWAP1 POP SWAP2 SWAP1 POP JUMP JUMPDEST PUSH2 0x14AF DUP2 PUSH2 0x1494 JUMP JUMPDEST DUP2 EQ PUSH2 0x14BA JUMPI PUSH1 0x0 DUP1 REVERT JUMPDEST POP JUMP JUMPDEST PUSH1 0x0 DUP2 CALLDATALOAD SWAP1 POP PUSH2 0x14CC DUP2 PUSH2 0x14A6 JUMP JUMPDEST SWAP3 SWAP2 POP POP JUMP JUMPDEST PUSH1 0x0 DUP1 PUSH1 0x40 DUP4 DUP6 SUB SLT ISZERO PUSH2 0x14E9 JUMPI PUSH2 0x14E8 PUSH2 0x1101 JUMP JUMPDEST JUMPDEST PUSH1 0x0 PUSH2 0x14F7 DUP6 DUP3 DUP7 ADD PUSH2 0x1408 JUMP JUMPDEST SWAP3 POP POP PUSH1 0x20 PUSH2 0x1508 DUP6 DUP3 DUP7 ADD PUSH2 0x14BD JUMP JUMPDEST SWAP2 POP POP SWAP3 POP SWAP3 SWAP1 POP JUMP JUMPDEST PUSH1 0x0 PUSH1 0x20 DUP3 DUP5 SUB SLT ISZERO PUSH2 0x1528 JUMPI PUSH2 0x1527 PUSH2 0x1101 JUMP JUMPDEST JUMPDEST PUSH1 0x0 PUSH2 0x1536 DUP5 DUP3 DUP6 ADD PUSH2 0x14BD JUMP JUMPDEST SWAP2 POP POP SWAP3 SWAP2 POP POP JUMP JUMPDEST PUSH2 0x1548 DUP2 PUSH2 0x13B3 JUMP JUMPDEST DUP2 EQ PUSH2 0x1553 JUMPI PUSH1 0x0 DUP1 REVERT JUMPDEST POP JUMP JUMPDEST PUSH1 0x0 DUP2 CALLDATALOAD SWAP1 POP PUSH2 0x1565 DUP2 PUSH2 0x153F JUMP JUMPDEST SWAP3 SWAP2 POP POP JUMP JUMPDEST PUSH1 0x0 PUSH1 0x20 DUP3 DUP5 SUB SLT ISZERO PUSH2 0x1581 JUMPI PUSH2 0x1580 PUSH2 0x1101 JUMP JUMPDEST JUMPDEST PUSH1 0x0 PUSH2 0x158F DUP5 DUP3 DUP6 ADD PUSH2 0x1556 JUMP JUMPDEST SWAP2 POP POP SWAP3 SWAP2 POP POP JUMP JUMPDEST PUSH1 0x0 DUP2 MLOAD SWAP1 POP SWAP2 SWAP1 POP JUMP JUMPDEST PUSH1 0x0 DUP3 DUP3 MSTORE PUSH1 0x20 DUP3 ADD SWAP1 POP SWAP3 SWAP2 POP POP JUMP JUMPDEST PUSH1 0x0 JUMPDEST DUP4 DUP2 LT ISZERO PUSH2 0x15D2 JUMPI DUP1 DUP3 ADD MLOAD DUP2 DUP5 ADD MSTORE PUSH1 0x20 DUP2 ADD SWAP1 POP PUSH2 0x15B7 JUMP JUMPDEST PUSH1 0x0 DUP5 DUP5 ADD MSTORE POP POP POP POP JUMP JUMPDEST PUSH1 0x0 PUSH2 0x15E9 DUP3 PUSH2 0x1598 JUMP JUMPDEST PUSH2 0x15F3 DUP2 DUP6 PUSH2 0x15A3 JUMP JUMPDEST SWAP4 POP PUSH2 0x1603 DUP2 DUP6 PUSH1 0x20 DUP7 ADD PUSH2 0x15B4 JUMP JUMPDEST PUSH2 0x160C DUP2 PUSH2 0x11D0 JUMP JUMPDEST DUP5 ADD SWAP2 POP POP SWAP3 SWAP2 POP POP JUMP JUMPDEST PUSH2 0x1620 DUP2 PUSH2 0x1494 JUMP JUMPDEST DUP3 MSTORE POP POP JUMP JUMPDEST PUSH1 0x0 PUSH1 0xC0 DUP3 ADD SWAP1 POP PUSH2 0x163B PUSH1 0x0 DUP4 ADD DUP10 PUSH2 0x13BD JUMP JUMPDEST DUP2 DUP2 SUB PUSH1 0x20 DUP4 ADD MSTORE PUSH2 0x164D DUP2 DUP9 PUSH2 0x15DE JUMP JUMPDEST SWAP1 POP DUP2 DUP2 SUB PUSH1 0x40 DUP4 ADD MSTORE PUSH2 0x1661 DUP2 DUP8 PUSH2 0x15DE JUMP JUMPDEST SWAP1 POP DUP2 DUP2 SUB PUSH1 0x60 DUP4 ADD MSTORE PUSH2 0x1675 DUP2 DUP7 PUSH2 0x15DE JUMP JUMPDEST SWAP1 POP PUSH2 0x1684 PUSH1 0x80 DUP4 ADD DUP6 PUSH2 0x13BD JUMP JUMPDEST PUSH2 0x1691 PUSH1 0xA0 DUP4 ADD DUP5 PUSH2 0x1617 JUMP JUMPDEST SWAP8 SWAP7 POP POP POP POP POP POP POP JUMP JUMPDEST PUSH1 0x0 DUP1 PUSH1 0x40 DUP4 DUP6 SUB SLT ISZERO PUSH2 0x16B3 JUMPI PUSH2 0x16B2 PUSH2 0x1101 JUMP JUMPDEST JUMPDEST PUSH1 0x0 PUSH2 0x16C1 DUP6 DUP3 DUP7 ADD PUSH2 0x1556 JUMP JUMPDEST SWAP3 POP POP PUSH1 0x20 DUP4 ADD CALLDATALOAD PUSH8 0xFFFFFFFFFFFFFFFF DUP2 GT ISZERO PUSH2 0x16E2 JUMPI PUSH2 0x16E1 PUSH2 0x1106 JUMP JUMPDEST JUMPDEST PUSH2 0x16EE DUP6 DUP3 DUP7 ADD PUSH2 0x12DE JUMP JUMPDEST SWAP2 POP POP SWAP3 POP SWAP3 SWAP1 POP JUMP JUMPDEST PUSH1 0x0 PUSH1 0x20 DUP3 DUP5 SUB SLT ISZERO PUSH2 0x170E JUMPI PUSH2 0x170D PUSH2 0x1101 JUMP JUMPDEST JUMPDEST PUSH1 0x0 DUP3 ADD CALLDATALOAD PUSH8 0xFFFFFFFFFFFFFFFF DUP2 GT ISZERO PUSH2 0x172C JUMPI PUSH2 0x172B PUSH2 0x1106 JUMP JUMPDEST JUMPDEST PUSH2 0x1738 DUP5 DUP3 DUP6 ADD PUSH2 0x12DE JUMP JUMPDEST SWAP2 POP POP SWAP3 SWAP2 POP POP JUMP JUMPDEST PUSH1 0x0 DUP2 MLOAD SWAP1 POP SWAP2 SWAP1 POP JUMP JUMPDEST PUSH1 0x0 DUP3 DUP3 MSTORE PUSH1 0x20 DUP3 ADD SWAP1 POP SWAP3 SWAP2 POP POP JUMP JUMPDEST PUSH1 0x0 DUP2 SWAP1 POP PUSH1 0x20 DUP3 ADD SWAP1 POP SWAP2 SWAP1 POP JUMP JUMPDEST PUSH2 0x1776 DUP2 PUSH2 0x13B3 JUMP JUMPDEST DUP3 MSTORE POP POP JUMP JUMPDEST PUSH1 0x0 PUSH2 0x1788 DUP4 DUP4 PUSH2 0x176D JUMP JUMPDEST PUSH1 0x20 DUP4 ADD SWAP1 POP SWAP3 SWAP2 POP POP JUMP JUMPDEST PUSH1 0x0 PUSH1 0x20 DUP3 ADD SWAP1 POP SWAP2 SWAP1 POP JUMP JUMPDEST PUSH1 0x0 PUSH2 0x17AC DUP3 PUSH2 0x1741 JUMP JUMPDEST PUSH2 0x17B6 DUP2 DUP6 PUSH2 0x174C JUMP JUMPDEST SWAP4 POP PUSH2 0x17C1 DUP4 PUSH2 0x175D JUMP JUMPDEST DUP1 PUSH1 0x0 JUMPDEST DUP4 DUP2 LT ISZERO PUSH2 0x17F2 JUMPI DUP2 MLOAD PUSH2 0x17D9 DUP9 DUP3 PUSH2 0x177C JUMP JUMPDEST SWAP8 POP PUSH2 0x17E4 DUP4 PUSH2 0x1794 JUMP JUMPDEST SWAP3 POP POP PUSH1 0x1 DUP2 ADD SWAP1 POP PUSH2 0x17C5 JUMP JUMPDEST POP DUP6 SWAP4 POP POP POP POP SWAP3 SWAP2 POP POP JUMP JUMPDEST PUSH1 0x0 PUSH1 0x20 DUP3 ADD SWAP1 POP DUP2 DUP2 SUB PUSH1 0x0 DUP4 ADD MSTORE PUSH2 0x1819 DUP2 DUP5 PUSH2 0x17A1 JUMP JUMPDEST SWAP1 POP SWAP3 SWAP2 POP POP JUMP JUMPDEST PUSH32 0x4E487B7100000000000000000000000000000000000000000000000000000000 PUSH1 0x0 MSTORE PUSH1 0x22 PUSH1 0x4 MSTORE PUSH1 0x24 PUSH1 0x0 REVERT JUMPDEST PUSH1 0x0 PUSH1 0x2 DUP3 DIV SWAP1 POP PUSH1 0x1 DUP3 AND DUP1 PUSH2 0x1868 JUMPI PUSH1 0x7F DUP3 AND SWAP2 POP JUMPDEST PUSH1 0x20 DUP3 LT DUP2 SUB PUSH2 0x187B JUMPI PUSH2 0x187A PUSH2 0x1821 JUMP JUMPDEST JUMPDEST POP SWAP2 SWAP1 POP JUMP JUMPDEST PUSH1 0x0 DUP2 SWAP1 POP DUP2 PUSH1 0x0 MSTORE PUSH1 0x20 PUSH1 0x0 KECCAK256 SWAP1 POP SWAP2 SWAP1 POP JUMP JUMPDEST PUSH1 0x0 PUSH1 0x20 PUSH1 0x1F DUP4 ADD DIV SWAP1 POP SWAP2 SWAP1 POP JUMP JUMPDEST PUSH1 0x0 DUP3 DUP3 SHL SWAP1 POP SWAP3 SWAP2 POP POP JUMP JUMPDEST PUSH1 0x0 PUSH1 0x8 DUP4 MUL PUSH2 0x18E3 PUSH32 0xFFFFFFFFFFFFFFFFFFFFFFFFFFFFFFFFFFFFFFFFFFFFFFFFFFFFFFFFFFFFFFFF DUP3 PUSH2 0x18A6 JUMP JUMPDEST PUSH2 0x18ED DUP7 DUP4 PUSH2 0x18A6 JUMP JUMPDEST SWAP6 POP DUP1 NOT DUP5 AND SWAP4 POP DUP1 DUP7 AND DUP5 OR SWAP3 POP POP POP SWAP4 SWAP3 POP POP POP JUMP JUMPDEST PUSH1 0x0 DUP2 SWAP1 POP SWAP2 SWAP1 POP JUMP JUMPDEST PUSH1 0x0 PUSH2 0x192A PUSH2 0x1925 PUSH2 0x1920 DUP5 PUSH2 0x13B3 JUMP JUMPDEST PUSH2 0x1905 JUMP JUMPDEST PUSH2 0x13B3 JUMP JUMPDEST SWAP1 POP SWAP2 SWAP1 POP JUMP JUMPDEST PUSH1 0x0 DUP2 SWAP1 POP SWAP2 SWAP1 POP JUMP JUMPDEST PUSH2 0x1944 DUP4 PUSH2 0x190F JUMP JUMPDEST PUSH2 0x1958 PUSH2 0x1950 DUP3 PUSH2 0x1931 JUMP JUMPDEST DUP5 DUP5 SLOAD PUSH2 0x18B3 JUMP JUMPDEST DUP3 SSTORE POP POP POP POP JUMP JUMPDEST PUSH1 0x0 SWAP1 JUMP JUMPDEST PUSH2 0x196D PUSH2 0x1960 JUMP JUMPDEST PUSH2 0x1978 DUP2 DUP5 DUP5 PUSH2 0x193B JUMP JUMPDEST POP POP POP JUMP JUMPDEST JUMPDEST DUP2 DUP2 LT ISZERO PUSH2 0x199C JUMPI PUSH2 0x1991 PUSH1 0x0 DUP3 PUSH2 0x1965 JUMP JUMPDEST PUSH1 0x1 DUP2 ADD SWAP1 POP PUSH2 0x197E JUMP JUMPDEST POP POP JUMP JUMPDEST PUSH1 0x1F DUP3 GT ISZERO PUSH2 0x19E1 JUMPI PUSH2 0x19B2 DUP2 PUSH2 0x1881 JUMP JUMPDEST PUSH2 0x19BB DUP5 PUSH2 0x1896 JUMP JUMPDEST DUP2 ADD PUSH1 0x20 DUP6 LT ISZERO PUSH2 0x19CA JUMPI DUP2 SWAP1 POP JUMPDEST PUSH2 0x19DE PUSH2 0x19D6 DUP6 PUSH2 0x1896 JUMP JUMPDEST DUP4 ADD DUP3 PUSH2 0x197D JUMP JUMPDEST POP POP JUMPDEST POP POP POP JUMP JUMPDEST PUSH1 0x0 DUP3 DUP3 SHR SWAP1 POP SWAP3 SWAP2 POP POP JUMP JUMPDEST PUSH1 0x0 PUSH2 0x1A04 PUSH1 0x0 NOT DUP5 PUSH1 0x8 MUL PUSH2 0x19E6 JUMP JUMPDEST NOT DUP1 DUP4 AND SWAP2 POP POP SWAP3 SWAP2 POP POP JUMP JUMPDEST PUSH1 0x0 PUSH2 0x1A1D DUP4 DUP4 PUSH2 0x19F3 JUMP JUMPDEST SWAP2 POP DUP3 PUSH1 0x2 MUL DUP3 OR SWAP1 POP SWAP3 SWAP2 POP POP JUMP JUMPDEST PUSH2 0x1A36 DUP3 PUSH2 0x1598 JUMP JUMPDEST PUSH8 0xFFFFFFFFFFFFFFFF DUP2 GT ISZERO PUSH2 0x1A4F JUMPI PUSH2 0x1A4E PUSH2 0x11E1 JUMP JUMPDEST JUMPDEST PUSH2 0x1A59 DUP3 SLOAD PUSH2 0x1850 JUMP JUMPDEST PUSH2 0x1A64 DUP3 DUP3 DUP6 PUSH2 0x19A0 JUMP JUMPDEST PUSH1 0x0 PUSH1 0x20 SWAP1 POP PUSH1 0x1F DUP4 GT PUSH1 0x1 DUP2 EQ PUSH2 0x1A97 JUMPI PUSH1 0x0 DUP5 ISZERO PUSH2 0x1A85 JUMPI DUP3 DUP8 ADD MLOAD SWAP1 POP JUMPDEST PUSH2 0x1A8F DUP6 DUP3 PUSH2 0x1A11 JUMP JUMPDEST DUP7 SSTORE POP PUSH2 0x1AF7 JUMP JUMPDEST PUSH1 0x1F NOT DUP5 AND PUSH2 0x1AA5 DUP7 PUSH2 0x1881 JUMP JUMPDEST PUSH1 0x0 JUMPDEST DUP3 DUP2 LT ISZERO PUSH2 0x1ACD JUMPI DUP5 DUP10 ADD MLOAD DUP3 SSTORE PUSH1 0x1 DUP3 ADD SWAP2 POP PUSH1 0x20 DUP6 ADD SWAP5 POP PUSH1 0x20 DUP2 ADD SWAP1 POP PUSH2 0x1AA8 JUMP JUMPDEST DUP7 DUP4 LT ISZERO PUSH2 0x1AEA JUMPI DUP5 DUP10 ADD MLOAD PUSH2 0x1AE6 PUSH1 0x1F DUP10 AND DUP3 PUSH2 0x19F3 JUMP JUMPDEST DUP4 SSTORE POP JUMPDEST PUSH1 0x1 PUSH1 0x2 DUP9 MUL ADD DUP9 SSTORE POP POP POP JUMPDEST POP POP POP POP POP POP JUMP JUMPDEST PUSH1 0x0 DUP2 SWAP1 POP SWAP3 SWAP2 POP POP JUMP JUMPDEST PUSH1 0x0 PUSH2 0x1B15 DUP3 PUSH2 0x1598 JUMP JUMPDEST PUSH2 0x1B1F DUP2 DUP6 PUSH2 0x1AFF JUMP JUMPDEST SWAP4 POP PUSH2 0x1B2F DUP2 DUP6 PUSH1 0x20 DUP7 ADD PUSH2 0x15B4 JUMP JUMPDEST DUP1 DUP5 ADD SWAP2 POP POP SWAP3 SWAP2 POP POP JUMP JUMPDEST PUSH1 0x0 PUSH2 0x1B47 DUP3 DUP5 PUSH2 0x1B0A JUMP JUMPDEST SWAP2 POP DUP2 SWAP1 POP SWAP3 SWAP2 POP POP JUMP JUMPDEST PUSH1 0x0 PUSH1 0xA0 DUP3 ADD SWAP1 POP PUSH2 0x1B67 PUSH1 0x0 DUP4 ADD DUP9 PUSH2 0x13BD JUMP JUMPDEST DUP2 DUP2 SUB PUSH1 0x20 DUP4 ADD MSTORE PUSH2 0x1B79 DUP2 DUP8 PUSH2 0x15DE JUMP JUMPDEST SWAP1 POP DUP2 DUP2 SUB PUSH1 0x40 DUP4 ADD MSTORE PUSH2 0x1B8D DUP2 DUP7 PUSH2 0x15DE JUMP JUMPDEST SWAP1 POP DUP2 DUP2 SUB PUSH1 0x60 DUP4 ADD MSTORE PUSH2 0x1BA1 DUP2 DUP6 PUSH2 0x15DE JUMP JUMPDEST SWAP1 POP PUSH2 0x1BB0 PUSH1 0x80 DUP4 ADD DUP5 PUSH2 0x1617 JUMP JUMPDEST SWAP7 SWAP6 POP POP POP POP POP POP JUMP JUMPDEST PUSH32 0x416363657373436F6E74726F6C3A2063616E206F6E6C792072656E6F756E6365 PUSH1 0x0 DUP3 ADD MSTORE PUSH32 0x20726F6C657320666F722073656C660000000000000000000000000000000000 PUSH1 0x20 DUP3 ADD MSTORE POP JUMP JUMPDEST PUSH1 0x0 PUSH2 0x1C16 PUSH1 0x2F DUP4 PUSH2 0x15A3 JUMP JUMPDEST SWAP2 POP PUSH2 0x1C21 DUP3 PUSH2 0x1BBA JUMP JUMPDEST PUSH1 0x40 DUP3 ADD SWAP1 POP SWAP2 SWAP1 POP JUMP JUMPDEST PUSH1 0x0 PUSH1 0x20 DUP3 ADD SWAP1 POP DUP2 DUP2 SUB PUSH1 0x0 DUP4 ADD MSTORE PUSH2 0x1C45 DUP2 PUSH2 0x1C09 JUMP JUMPDEST SWAP1 POP SWAP2 SWAP1 POP JUMP JUMPDEST PUSH1 0x0 PUSH1 0x20 DUP3 ADD SWAP1 POP PUSH2 0x1C61 PUSH1 0x0 DUP4 ADD DUP5 PUSH2 0x1617 JUMP JUMPDEST SWAP3 SWAP2 POP POP JUMP JUMPDEST PUSH1 0x0 DUP2 SLOAD PUSH2 0x1C74 DUP2 PUSH2 0x1850 JUMP JUMPDEST PUSH2 0x1C7E DUP2 DUP7 PUSH2 0x1AFF JUMP JUMPDEST SWAP5 POP PUSH1 0x1 DUP3 AND PUSH1 0x0 DUP2 EQ PUSH2 0x1C99 JUMPI PUSH1 0x1 DUP2 EQ PUSH2 0x1CAE JUMPI PUSH2 0x1CE1 JUMP JUMPDEST PUSH1 0xFF NOT DUP4 AND DUP7 MSTORE DUP2 ISZERO ISZERO DUP3 MUL DUP7 ADD SWAP4 POP PUSH2 0x1CE1 JUMP JUMPDEST PUSH2 0x1CB7 DUP6 PUSH2 0x1881 JUMP JUMPDEST PUSH1 0x0 JUMPDEST DUP4 DUP2 LT ISZERO PUSH2 0x1CD9 JUMPI DUP2 SLOAD DUP2 DUP10 ADD MSTORE PUSH1 0x1 DUP3 ADD SWAP2 POP PUSH1 0x20 DUP2 ADD SWAP1 POP PUSH2 0x1CBA JUMP JUMPDEST DUP4 DUP9 ADD SWAP6 POP POP POP JUMPDEST POP POP POP SWAP3 SWAP2 POP POP JUMP JUMPDEST PUSH1 0x0 PUSH2 0x1CF6 DUP3 DUP5 PUSH2 0x1C67 JUMP JUMPDEST SWAP2 POP DUP2 SWAP1 POP SWAP3 SWAP2 POP POP JUMP JUMPDEST PUSH32 0x416363657373436F6E74726F6C3A206163636F756E7420000000000000000000 PUSH1 0x0 DUP3 ADD MSTORE POP JUMP JUMPDEST PUSH1 0x0 PUSH2 0x1D37 PUSH1 0x17 DUP4 PUSH2 0x1AFF JUMP JUMPDEST SWAP2 POP PUSH2 0x1D42 DUP3 PUSH2 0x1D01 JUMP JUMPDEST PUSH1 0x17 DUP3 ADD SWAP1 POP SWAP2 SWAP1 POP JUMP JUMPDEST PUSH32 0x206973206D697373696E6720726F6C6520000000000000000000000000000000 PUSH1 0x0 DUP3 ADD MSTORE POP JUMP JUMPDEST PUSH1 0x0 PUSH2 0x1D83 PUSH1 0x11 DUP4 PUSH2 0x1AFF JUMP JUMPDEST SWAP2 POP PUSH2 0x1D8E DUP3 PUSH2 0x1D4D JUMP JUMPDEST PUSH1 0x11 DUP3 ADD SWAP1 POP SWAP2 SWAP1 POP JUMP JUMPDEST PUSH1 0x0 PUSH2 0x1DA4 DUP3 PUSH2 0x1D2A JUMP JUMPDEST SWAP2 POP PUSH2 0x1DB0 DUP3 DUP6 PUSH2 0x1B0A JUMP JUMPDEST SWAP2 POP PUSH2 0x1DBB DUP3 PUSH2 0x1D76 JUMP JUMPDEST SWAP2 POP PUSH2 0x1DC7 DUP3 DUP5 PUSH2 0x1B0A JUMP JUMPDEST SWAP2 POP DUP2 SWAP1 POP SWAP4 SWAP3 POP POP POP JUMP JUMPDEST PUSH1 0x0 PUSH1 0x20 DUP3 ADD SWAP1 POP DUP2 DUP2 SUB PUSH1 0x0 DUP4 ADD MSTORE PUSH2 0x1DED DUP2 DUP5 PUSH2 0x15DE JUMP JUMPDEST SWAP1 POP SWAP3 SWAP2 POP POP JUMP JUMPDEST PUSH32 0x4E487B7100000000000000000000000000000000000000000000000000000000 PUSH1 0x0 MSTORE PUSH1 0x11 PUSH1 0x4 MSTORE PUSH1 0x24 PUSH1 0x0 REVERT JUMPDEST PUSH1 0x0 PUSH2 0x1E2F DUP3 PUSH2 0x13B3 JUMP JUMPDEST SWAP2 POP PUSH2 0x1E3A DUP4 PUSH2 0x13B3 JUMP JUMPDEST SWAP3 POP DUP3 DUP3 MUL PUSH2 0x1E48 DUP2 PUSH2 0x13B3 JUMP JUMPDEST SWAP2 POP DUP3 DUP3 DIV DUP5 EQ DUP4 ISZERO OR PUSH2 0x1E5F JUMPI PUSH2 0x1E5E PUSH2 0x1DF5 JUMP JUMPDEST JUMPDEST POP SWAP3 SWAP2 POP POP JUMP JUMPDEST PUSH1 0x0 PUSH2 0x1E71 DUP3 PUSH2 0x13B3 JUMP JUMPDEST SWAP2 POP PUSH2 0x1E7C DUP4 PUSH2 0x13B3 JUMP JUMPDEST SWAP3 POP DUP3 DUP3 ADD SWAP1 POP DUP1 DUP3 GT ISZERO PUSH2 0x1E94 JUMPI PUSH2 0x1E93 PUSH2 0x1DF5 JUMP JUMPDEST JUMPDEST SWAP3 SWAP2 POP POP JUMP JUMPDEST PUSH32 0x4E487B7100000000000000000000000000000000000000000000000000000000 PUSH1 0x0 MSTORE PUSH1 0x32 PUSH1 0x4 MSTORE PUSH1 0x24 PUSH1 0x0 REVERT JUMPDEST PUSH1 0x0 PUSH2 0x1ED4 DUP3 PUSH2 0x13B3 JUMP JUMPDEST SWAP2 POP PUSH1 0x0 DUP3 SUB PUSH2 0x1EE7 JUMPI PUSH2 0x1EE6 PUSH2 0x1DF5 JUMP JUMPDEST JUMPDEST PUSH1 0x1 DUP3 SUB SWAP1 POP SWAP2 SWAP1 POP JUMP JUMPDEST PUSH32 0x537472696E67733A20686578206C656E67746820696E73756666696369656E74 PUSH1 0x0 DUP3 ADD MSTORE POP JUMP JUMPDEST PUSH1 0x0 PUSH2 0x1F28 PUSH1 0x20 DUP4 PUSH2 0x15A3 JUMP JUMPDEST SWAP2 POP PUSH2 0x1F33 DUP3 PUSH2 0x1EF2 JUMP JUMPDEST PUSH1 0x20 DUP3 ADD SWAP1 POP SWAP2 SWAP1 POP JUMP JUMPDEST PUSH1 0x0 PUSH1 0x20 DUP3 ADD SWAP1 POP DUP2 DUP2 SUB PUSH1 0x0 DUP4 ADD MSTORE PUSH2 0x1F57 DUP2 PUSH2 0x1F1B JUMP JUMPDEST SWAP1 POP SWAP2 SWAP1 POP JUMP INVALID LOG2 PUSH5 0x6970667358 0x22 SLT KECCAK256 0xA5 GT PUSH9 0x363AC7E0D900794719 CALLVALUE 0x4C KECCAK256 PUSH11 0x224F7FE09FB214F2E1FCA9 0xB8 SWAP12 0xE4 PUSH12 0xB864736F6C63430008140033 "},"methodIdentifiers":{"ADMIN_ROLE()":"75b238fc","DEFAULT_ADMIN_ROLE()":"a217fddf","TEACHER_ROLE()":"86e5c15a","addTeacher(address)":"3bc6e309","getResult(uint256)":"995e4339","getRoleAdmin(bytes32)":"248a9ca3","getStudentResultIds(string)":"d3eec717","grantRole(bytes32,address)":"2f2ff15d","hasRole(bytes32,address)":"91d14854","removeTeacher(address)":"52ff6846","renounceRole(bytes32,address)":"36568abe","revokeRole(bytes32,address)":"d547741f","supportsInterface(bytes4)":"01ffc9a7","uploadResult(string,string,string)":"24464fd9","verifyResult(uint256,string)":"d027ca7d"}}}}}